:020000040800F2
:1040000078580020F1410008514600084946000850
:104010004D460008B94300089B4D00080000000011
:1040200000000000000000000000000059410008EE
:10403000DF430008000000009D410008D54A000849
:104040000B4200080B4200080B4200080B4200081C
:104050000B4200080B4200080B4200080B4200080C
:104060000B4200080B4200080B4200080B420008FC
:104070000B4200080B4200080B4200080B420008EC
:104080000B4200080B4200080B4200080B420008DC
:104090000B4200080B4200080B4200080B420008CC
:1040A0000B4200080B4200080B4200080B420008BC
:1040B0000B4200080B420008AD4B00080B42000801
:1040C0000B4200080B4200080B4200080B4200089C
:1040D0000B420008B14B00080B4200080B420008DD
:1040E0000B4200080B4200080B4200080B4200087C
:1040F0000B4200080B4200080B4200080B4200086C
:104100000B4200080B4200080B4200080B4200085B
:104110000B4200080B4200080B4200080B4200084B
:104120000B4200080B4200080B4200080B4200083B
:10413000DFF810D000F0A8F800480047355200081A
:10414000AFF3008078580020EFF308807047EFF35A
:104150000980704768467047224B19680868B0E8C4
:10416000F00F80F30988BFF36F8F4FF0000080F3EA
:1041700011884EF00D0E70470000000006480068E0
:10418000006880F3088862B661B6BFF34F8FBFF353
:104190006F8F00DF00BF00BF08ED00E0EFF3098084
:1041A000BFF36F8F0F4B1A6820E9F00F106008B54E
:1041B0004FF0500080F31188BFF34F8FBFF36F8F24
:1041C00002F0C8FA4FF0000080F31188BDE8084003
:1041D00019680868B0E8F00F80F30988BFF36F8FA3
:1041E000704700BF10000020EFF30580704700000B
:1041F0000648804706480047FEE7FEE7FEE7FEE781
:10420000FEE7FEE7FEE7FEE7FEE7FEE74D4B0008B0
:104210003141000840EA01039B0703D009E008C9C7
:10422000121F08C0042AFAD203E011F8013B00F87B
:10423000013B521EF9D27047D2B201E000F8012BC7
:10424000491EFBD270470022F6E710B513460A4616
:1042500004461946FFF7F0FF204610BD30B50B4667
:10426000014600202022012409E021FA02F59D42A6
:1042700005D303FA02F5491B04FA02F52844151E7A
:10428000A2F10102F1DC30BD064C074D06E0E0680A
:1042900040F0010394E8070098471034AC42F6D38D
:1042A000FFF74AFF0C7500082C7500081CB50124A7
:1042B00001F0DAFE1B48022100233222CDE9001072
:1042C00019A11C4802F042FE0446012C02D11AA09A
:1042D00000F066FD1F48032100233222CDE90010C3
:1042E0001DA1204802F032FE0446012C02D11EA07E
:1042F00000F056FD2348042100238022CDE9001060
:1043000021A1244802F022FE0446012C02D122A061
:1043100000F046FD2748006802F052F801F0E8FE80
:104320001CBD0000040000206C6564305F74617384
:104330006B000000E1510008B4B4BDA86C656430A6
:104340005F7461736BC8CECEF1B3C9B9A6210D0AF3
:1043500000000000080000206C6564315F74617328
:104360006B0000000D520008B4B4BDA86C65643148
:104370005F7461736BC8CECEF1B3C9B9A6210D0AC3
:10438000000000000C00002070726F6469735F749D
:1043900061736B002D530008B4B4BDA870726F64D4
:1043A00069735F7461736BC8CECEF1B3C9B9A621CE
:1043B0000D0A00000000002000BFFEE770B50246B5
:1043C00000240023002000BF05E012F8016BF5185F
:1043D000EBB2651CECB28C42F7DBD8B270BD704713
:1043E0000149C860704700000020024030B5044613
:1043F00004254FF4302000F085F80546042D17D130
:104400000C48006940F002000A490861084644610E
:10441000006940F0400008614FF4302000F072F86D
:1044200005460448006941F6FD71084001490861EC
:10443000284630BD0020024004200B49C96801F025
:10444000010109B101200EE00749C96801F004012A
:1044500009B1022007E00449C96801F0100109B15F
:10446000032000E004207047002002400348006958
:1044700040F08000014908617047000000200240C0
:1044800078B506460C46042500200090E80200F0AE
:1044900039F80546042D24D11348006940F0010085
:1044A000114908613480E80200F02CF80546042D1B
:1044B00010D1B01C0090200C00990880E80200F098
:1044C00021F805460848006941F6FE710840064992
:1044D000086106E00448006941F6FE71084002499F
:1044E0000861284678BD00000020024002480349C8
:1044F0004860034848607047230167450020024038
:10450000AB89EFCD00B502460423FFF795FF0346C4
:1045100003E0FFF791FF0346521E012B01D1002A51
:10452000F7D102B90523184600BD2DE9F041024636
:1045300000250026002000230024002791F803C056
:104540000CF00F0591F803C00CF0100CBCF1000F3B
:1045500003D091F802C04CEA050591F800C0BCF107
:10456000000F31D0146800202BE04FF0010C0CFA42
:1045700000F3B1F800C00CEA03069E4220D183008C
:104580004FF00F0C0CFA03F7BC4305FA03FC4CEA9E
:10459000040491F803C0BCF1280F06D14FF0010CC0
:1045A0000CFA00FCC2F814C00AE091F803C0BCF198
:1045B000480F05D14FF0010C0CFA00FCC2F810C0F6
:1045C000401C0828D1D31460B1F800C0BCF1FF0F23
:1045D00034DD546800202EE000F1080C4FF0010893
:1045E00008FA0CF3B1F800C00CEA03069E4221D190
:1045F00083004FF00F0C0CFA03F7BC4305FA03FCE1
:104600004CEA040491F803C0BCF1280F05D100F175
:10461000080C08FA0CF8C2F8148091F803C0BCF139
:10462000480F07D100F1080C4FF0010808FA0CF808
:10463000C2F81080401C0828CED35460BDE8F08139
:10464000416170470161704700BFFEE700BFFEE7B0
:104650007047000070B5002100230F22C47804B316
:10466000154C246804F4E064C4F5E064210AC1F147
:104670000403CA40447804FA03F1847814402143C7
:1046800009010E4C0678A155047804F01F05012499
:10469000AC4005786D11AD0005F1E025C5F800418D
:1046A00009E0047804F01F050124AC40044D0678AD
:1046B000761145F8264070BD0CED00E000E400E006
:1046C00080E100E002490143024A116070470000A6
:1046D0000000FA050CED00E029B1064A9269024398
:1046E000044B9A6104E0034A92698243014B9A6148
:1046F000704700000010024030B500210022002465
:1047000000232D4D6D6805F00C0121B1042905D061
:10471000082923D105E0294D056022E0274D0560D9
:104720001FE0254D6D6805F47012234D6D6805F48A
:104730008034022505EB92421CB9214D554305609A
:104740000BE01D4D6D6805F400351DB11C4D554342
:10475000056002E0194D5543056002E0174D056004
:1047600000BF00BF144D6D6805F0F0010909154D3B
:104770006B5C0568DD4045600F4D6D6805F4E061D8
:10478000090A104D6B5C4568DD4085600A4D6D6817
:1047900005F46051C90A0B4D6B5C4568DD40C5608E
:1047A000054D6D6805F44041890B074D6B5CC5688C
:1047B000B5FBF3F5056130BD0010024000127A0030
:1047C00000093D00880000209800002000B97047D3
:1047D000002180F8401080F8411000BFF7E7014643
:1047E00091F8400091F84120904201D1012070479A
:1047F0000020FCE7014691F84020501CC2B202F0B4
:104800003F0091F84130984201D1012070470020CB
:10481000FCE770B504460D4600265A2D04D194F8E5
:10482000470008B9002020702078072872D2DFE8FE
:1048300000F00415354A567287005A2D0AD12078A7
:10484000401C20700020A07094F84700401C84F8A1
:1048500047006570002084F8460080E0A57094F859
:104860004600401C84F8460094F84600012814DBFA
:104870000020E070A078042804DA0020207084F87A
:1048800047006CE0A078402804DD0020207084F808
:10489000470064E02078401C207060E0E57094F8E8
:1048A0004600401C84F8460094F84600022806DBC7
:1048B000002084F846002078401C207002E0002090
:1048C00084F847004BE0012D00D01DB92078401C32
:1048D000207003E00020207084F847003FE094F847
:1048E0004610601D455494F84600401C84F846006C
:1048F00094F84610A078C01E814206DB2078401C48
:104900002070002084F8460003E00020207084F826
:10491000470024E01EE0A078401CC1B2601CFFF7F5
:104920004DFD84F8450094F84500A84203D1207855
:10493000401C207003E00020207084F847000EE047
:10494000A52D01D1012602E0002084F846000020B8
:10495000207004E0002084F84600207000BF00BFF3
:10496000304670BD30B503460C4600251846FFF7AB
:1049700036FF70B913F8411F1878401C03F841093D
:10498000585C207093F8410000F03F0083F841002C
:104990000125284630BD30B504460D462046FFF7B8
:1049A00029FFA0B114F8401F2078401C04F84009EA
:1049B000655414F8400F00F03F0020706078401CF0
:1049C0006070607800F03F006070403C0CE014F8CC
:1049D000401F2078401C04F84009655494F84000BA
:1049E00000F03F0084F8400030BD10B500F002F840
:1049F00010BD00000CB50020019000903348006805
:104A000040F480303149086000BF3048006800F44D
:104A1000003000900198401C0190009818B901984E
:104A2000B0F5A06FF1D12948006800F4003010B152
:104A30000120009001E0002000900098012843D15F
:104A40002348006840F010002149086008460068CB
:104A500020F0070008600846006840F00200086087
:104A60001A48406819494860084640684860084646
:104A7000406840F4806048600846406820F47C103C
:104A800048600846406840F4E810486008460068FE
:104A900040F08070086000BF0C48006800F00070B3
:104AA0000028F9D00948406820F003000749486011
:104AB0000846406840F00200486000BF0348406874
:104AC00000F00C000828F9D10CBD000000100240D5
:104AD0000020024010B502F069FA012801D001F06F
:104AE000DFFE10BD70B586B0044601A8FFF704FED6
:104AF0004FF47A710298B0FBF1F5601EB0F1807F3F
:104B000002D3012006B070BD681E4FF0E02148615D
:104B100048170F21002807DA0A07160E094A00F085
:104B20000F031B1FD65403E00A07130E064A135443
:104B300000BF00204FF0E0218861072008610020BD
:104B4000E0E7000018ED00E000E400E010B51248D6
:104B5000006840F0010010490860084640680F49AD
:104B600008400D494860084600680D4908400A4958
:104B700008600846006820F4802008600846406805
:104B800020F4FE0048604FF41F008860FFF72DFFFF
:104B900004480549086010BD001002400000FFF8FD
:104BA000FFFFF6FE0040000808ED00E0704700003F
:104BB00010B540F22551094800F02FF860B140F2DD
:104BC0002551064800F00EF8044800F0E1F8C4B2A0
:104BD00021460348FFF7DFFE10BD0000003801400A
:104BE000EC53002010B50022002340F66A14A142C5
:104BF00000D100BF0A1201249440A3B2DC43048018
:104C000010BD21B1828942F40052828104E0828980
:104C10004DF6FF731A408281704770B5024600243A
:104C200000230025002040F66A16B14200D100BFE3
:104C3000C1F3421501F01F03012606FA03F3012D0B
:104C400002D19689334006E0022D02D1168A334004
:104C500001E0968A33400C12012606FA04F4168805
:104C6000344013B10CB1012000E0002070BDF0B55C
:104C70000346002400260025002040F66A17B942AA
:104C800000D100BF1846C1F3421401F01F060127EE
:104C900007FA06F5012C01D10C3004E0022C01D1F9
:104CA000103000E014301AB107682F43076002E0AB
:104CB0000768AF430760F0BD2DE9F04786B00546B1
:104CC0000E460024A24600BFA1460027B08900B1CD
:104CD00000BF2F462C8A4CF6FF700440F088044336
:104CE0002C82AC894EF6F3100440B0883189084319
:104CF000718908430443AC81AC8A4FF6FF400440FD
:104D0000B0890443AC8201A8FFF7F6FC1F48874234
:104D100002D1DDF810A001E0DDF80CA0A88900F4B4
:104D2000004040B10AEBCA0000EB0A1031684900AC
:104D3000B0FBF1F807E00AEBCA0000EB0A1031689B
:104D40008900B0FBF1F86420B8FBF0F00401200901
:104D5000642101FB1089A88900F4004040B1322091
:104D600000EBC900B0FBF1F000F00700044308E0DD
:104D7000322000EB09106421B0FBF1F000F00F00CD
:104D800004432C8106B0BDE8F087000000380140E4
:104D900001468888C0F30800704700BFFEE70000A6
:104DA0000FB4054B10B503A9044A029800F018F897
:104DB00010BC5DF814FB0000C55100089C000020E9
:104DC00002E008C8121F08C1002AFAD170477047D4
:104DD000002001E001C1121F002AFBD17047000032
:104DE0002DE9FF4F8BB09A460F460546002606E098
:104DF00025280BD052460D9990476D1C761C2878BB
:104E00000028F5D10FB03046BDE8F08F0024A04651
:104E10000122604900E0044315F8013F203B02FAFB
:104E200003F00842F7D128782E2817D115F8010F82
:104E300044F004042A280ED06FF02F022878A0F145
:104E4000300109290AD808EB880102EB410100EB87
:104E500001086D1CF2E757F8048B6D1C287869284F
:104E60003ED006DC0028CDD063280BD0642804D1C6
:104E700036E0732810D075284BD052460D999047D4
:104E8000761C85E017F8040B8DF8000000208DF8E3
:104E90000100E946012003E057F8049B4FF0FF3082
:104EA00061074FF0000401D40AE0641C44450DDAA8
:104EB0008442FADB19F804100029F6D106E0641CDC
:104EC0008442FCDB19F804100029F8D1264404E0E0
:104ED00019F8010B52460D999047641EF8D257E01D
:104EE00001CF4FF00A0B002802DA40422D2102E0E8
:104EF000210504D52B218DF82410012103E0E107C1
:104F000005D02021F7E70DF1200908910CE00021E0
:104F1000F9E701CF4FF00A0BF9E75946FFF79EF981
:104F200001F1300209F8012D0028F6D1ADEB09009E
:104F300000F1200B600701D44FF00108D84502DDD5
:104F4000A8EB0B0000E000208046002406E009A842
:104F50005246005D0D999047641C761C0898844267
:104F6000F5DB04E0302052460D999047761CB8F1ED
:104F70000001A8F10108F5DC05E019F8010B524623
:104F80000D999047761CBBF10001ABF1010BF4DCED
:104F90006D1C34E70928010070B504460E46002553
:104FA00000F011F83420FFF71BFA2046FFF71EFA35
:104FB000042800D0012500F002F8284670BD10B585
:104FC000FFF754FA10BD10B5FFF790FA10BD0000BE
:104FD0002DE9F04780460C461746002608EB0700EF
:104FE0003849884202D90020BDE8F0870FB9002077
:104FF000FAE7012080F3108800BFFFF7E4FF0025E7
:105000001FE014F82500012101EB8501615C40EAF5
:105010000120022101EB8501615C40EA014003218E
:1050200001EB8501615C40EA0169361D4946404655
:10503000FFF726FA042802D108F1040800E038E05E
:105040006D1CB5EB970FDCD307F0030050B34FF0A6
:10505000000907F00300012804D0022805D0032826
:1050600013D108E014F8069010E0A15D701C205CDC
:1050700041EA00290AE0A15D701C205C41EA0021A0
:10508000701C205C41EA004900E000BF00BF4946B7
:105090004046FFF7F5F9042802D108F1040800E0C2
:1050A00007E000BFFFF78BFF002080F3108800BFF0
:1050B0009AE7FFF784FF002080F3108800BF0120EB
:1050C00092E7000000F8030808B501210420FFF76B
:1050D00003FB01212020FFF7FFFA4FF40070ADF829
:1050E000000018208DF8030003208DF802006946A7
:1050F0001148FFF71AFA4FF48060ADF80000042061
:105100008DF8030069460C48FFF70FFA4FF48070E2
:10511000ADF8000010208DF8030069460648FFF73F
:1051200004FA0420ADF8000010208DF80300694651
:105130000248FFF7FAF908BD0008014000140140D9
:10514000704710B54FF4E1510A20FFF7F9FF10BD89
:1051500010B586B0044601218803FFF7BDFA02941A
:105160000020ADF80C00ADF80E00ADF81000ADF861
:1051700014000C20ADF8120002A91048FFF79CFDA6
:10518000012240F225510D48FFF771FD01210B4826
:10519000FFF737FD25208DF8040003208DF805006A
:1051A0008DF8060001208DF8070001A8FFF752FADC
:1051B0000348FFF70BFB06B010BD000000380140AC
:1051C000EC53002000BF054A128802F04002002A7A
:1051D000F9D0C2B2014B1B1D1A8070470038014044
:1051E00011E04FF480710848FFF72CFA4FF4FA7081
:1051F00001F0AAF84FF480710348FFF721FA4FF449
:10520000FA7001F0A1F8ECE7000801400FE004217A
:105210000748FFF717FA4FF4FA7001F095F80421E8
:105220000348FFF70DFA4FF4FA7001F08DF8EEE73E
:10523000001401401CB54FF44070FFF743FA0124FD
:105240004FF47A70FFF74EFCFFF73EFF4FF4E1306A
:10525000FFF77EFFFFF775FF0B4801210023802237
:10526000CDE9001009A10D4801F070FE0446012CA3
:1052700005D10BA0FFF794FD01F00CFA02E04FF00E
:10528000FF301CBD00BFFEE70000002041707054DD
:1052900061736B437265617465000000AD42000884
:1052A000BFAAC6F4C8CECEF1B5F7B6C80A00000052
:1052B00038B5184C27E09DF800102046FFF7A9FAF2
:1052C00008B30125E078C8B901211348FFF764FE4F
:1052D000042212491048FFF77BFE00BFBFF34F8F37
:1052E0000F48006800F4E0600E490843001D0C49B7
:1052F0000860BFF34F8F00BF00BFFEE70020A07023
:1053000000BF00BF00BF69460748FFF72BFB00281E
:10531000D1D138BD2E54002000F0030884000020B5
:105320000CED00E00000FA05EC53002004E0FFF76C
:10533000BFFF0A2001F008F8F9E700002DE9F0416D
:1053400005460E461C4807681C480068001D00F012
:1053500041FE50B91948006890F82C10012088408F
:1053600017490968814316480160681C38B936B18D
:1053700012480168091D134800F06AFE1AE07C1902
:105380000E4800684460BC4207D20C480168091D01
:105390000D48006800F042FE0CE008480168091D55
:1053A0000A48006800F03AFE09480068844201D2C9
:1053B00007480460BDE8F0812400002010000020B0
:1053C00028000020B0030020180000201400002056
:1053D0004000002010B5044600F046FE2448006856
:1053E000401C234908602348006840B921480460F4
:1053F0000846006801280DD100F0F0F90AE01E48C7
:10540000006838B91B480068C06AE16A884201D860
:105410001848046019480068401C1849086008468C
:105420000068606494F82C100120884014490968D1
:10543000084313490860E16A01EB8101114A02EB5C
:105440008100211D00F004FE00F052FE0A480068B1
:1054500068B108480068C06AE16A884207D24FF024
:10546000805009490860BFF34F8FBFF36F8F10BDA5
:1054700020000020100000202C0000203C00002014
:1054800028000020E000002004ED00E010B500F04E
:10549000EBFD10480068D0B90F4800F0AFFD0F4891
:1054A00000F0ACFD0C480E4908600C480D4908603E
:1054B00000221021052001F00DFA06490860084677
:1054C000006820B108A10348006800F001FF00F067
:1054D0000FFE10BD54000020C4030020D80300209C
:1054E0004C00002050000020546D7251000000005C
:1054F00070B523E001F026F91348006808B90120CF
:1055000000E00020054601F0E3FEBDB900F0ACFD6F
:105510000D48C068C468201D00F05CFD0B480068A1
:10552000401E0A4908600A480068401E0849086091
:1055300000F0DEFD204600F060F800BF044800687F
:105540000028D7D170BD00009C030020200000205F
:105550001C00002070B504460D46206C70B1216C13
:10556000E0680844E0606168E068884201D3206830
:10557000E0602846226CE168FEF74CFE70BD2DE924
:10558000F04104460F4615464FF00008A66B206C0C
:1055900040B9206860BB606801F0D0FD8046002003
:1055A000606025E07DB93946226CA068FEF732FEC6
:1055B000216CA0680844A060D4E90110884217D388
:1055C0002068A06014E03946226CE068FEF722FEF5
:1055D000216CE068401AE0602168E068884203D2EC
:1055E000216C6068401AE060022D01D106B1761E80
:1055F000701CA0634046BDE8F08110B50446206BE6
:1056000000F0AEFD204600F0ABFD10BD0146084A9B
:10561000126812680AB9012200E000220A600A68D2
:1056200022B9034A1268D268106800E0002070476F
:105630004C00002030B54FF4A043174800F0070499
:105640002CB1C01D20F00700134C041B1B1B02468D
:10565000124C22600024114D6C60D018083820F0E4
:1056600007000F4C206000240D4D2D686C600C4D20
:105670002D682C601146441A4C60094C24680C605B
:10568000084D4C682C60084D4C682C604FF000446D
:10569000064D2C6030BD0000EC0300206C000020A3
:1056A000740000207C000020780000208000002092
:1056B00000BFFFF71DFF064800680128F9D94FF029
:1056C000805004490860BFF34F8FBFF36F8FF0E73E
:1056D000E000002004ED00E02DE9F04106460D4613
:1056E00017469846069C0DB9246000E02760E663E3
:1056F00025640121204601F00FFA84F85080002033
:10570000A064BDE8F08100002DE9F05F82460F46FD
:1057100090469B460A9E0C9C4FEA8801A522206B6E
:10572000FEF78AFDA8F10100216B01EB800929F049
:10573000070909F0070008B9012000E0002028B996
:1057400040F22B321BA121A0FFF72AFB002507E026
:10575000795D04F134004155785D00B902E06D1CBB
:10576000102DF5D300BF002143200155202E00D37A
:105770001F26E662E66400202065201D00F04BFC39
:1057800004F1180000F047FC2461C6F12000A0617C
:1057900064620020606584F858005A4651464846C5
:1057A00000F006FC20600B9808B10B980460BDE87F
:1057B000F09F00002E2E5C52544F535C536F757255
:1057C00063655C7461736B732E6300004572726F66
:1057D000723A25732C25640D0A00000010B50024D0
:1057E00007E004EB84010F4A02EB810000F006FCA5
:1057F000641C202CF5D30C4800F000FC0B4800F092
:10580000FDFB0B4800F0FAFB0A4800F0F7FB0A48E2
:1058100000F0F4FB0448094908600448084908609E
:1058200010BD0000E0000020600300207403002091
:10583000880300209C030020B003002014000020F7
:105840001800002010B50146164800E00068036803
:105850008B42FBD30246436813448B4204D1436816
:105860004C682344436001460A464B68134404686D
:10587000A34211D10C4C03682468A34208D04B68A2
:105880000468646823444B6003681B680B6005E090
:10589000054B1B680B6001E003680B60884200D079
:1058A000016010BD6C000020740000202DE9F04163
:1058B00004460D4616461F464FF0000865602461F9
:1058C000B5420CD8F01BA169884202D34FF0010801
:1058D00011E0211D0948006800F0A0FB0BE0BE426A
:1058E00004D2BD4202D34FF0010804E0211D044858
:1058F000006800F093FB4046BDE8F08150000020B6
:105900004C00002070B5054600F0AEFBA86B08B94E
:10591000012400E0002400F0EBFB204670BD70B5D0
:10592000054600F0A1FBA86BE96B884201D1012478
:1059300000E0002400F0DCFB204670BD2DE9F341BF
:105940000D460098846C00272CB940F6CE121AA19F
:105950001FA0FFF725FAA06BE16B884201D201205E
:1059600000E0002028B940F6CF1213A118A0FFF7DD
:1059700017FAA06BE16B88421BD294F945602A4666
:1059800069462046FFF7FBFD0746701C60B9606A58
:1059900008B9012000E0002050B904F1240001F012
:1059A0003BFC28B1012703E0701C40B284F845009D
:1059B00000BF3846BDE8FC812E2E5C52544F535C2C
:1059C000536F757263655C71756575652E63000054
:1059D0004572726F723A25732C25640D0A0000001F
:1059E000F8B505460F4613480068C068C468201D16
:1059F00000F0F0FAE069012818D1A06941192B469E
:105A00003A462046FFF752FF80B1002003462A465F
:105A100001460090204601F027FD06462EB94FF4BE
:105A2000027205A10AA0FFF7BBF900BF2046616A18
:105A30008847F8BD4C0000202E2E5C52544F535C1A
:105A4000536F757263655C74696D6572732E630064
:105A50004572726F723A25732C25640D0A0000009E
:105A6000F0B587B070E0039800280CDA04AE2EB9C8
:105A700040F2E7223AA140A0FFF792F9D6E90020D0
:105A8000B168904700BF039800285DDB059C606902
:105A900008B9012000E0002010B9201D00F09AFA9A
:105AA00002A800F0C7F8054603980A284AD2DFE8A2
:105AB00000F00905072C2E4506082D2F00BF00BF5A
:105AC00000BF00BF0498A269811803462A462046F9
:105AD000FFF7ECFEC0B12046616A8847E069012803
:105AE00012D1002000900498A169421800231946A1
:105AF000204601F0B9FC07462FB940F2213218A127
:105B00001DA0FFF74DF900BF1DE000BF1BE000BF67
:105B10000498A061A06908B1012000E0002028B924
:105B20004FF44E720EA114A0FFF73AF9A069411983
:105B30002B462A462046FFF7B9FE04E0204600F037
:105B40000FFB00E000BF00BF00231A4603A90E4868
:105B5000006800F0FBFE002885D107B0F0BD000012
:105B60002E2E5C52544F535C536F757263655C7498
:105B7000696D6572732E63004572726F723A257398
:105B80002C25640D0A00000054000020F8B50546DD
:105B90000C4600F0D7FD684600F04CF80646009829
:105BA00020BB44B9B54206D801F092FB31462846E5
:105BB000FFF716FF1CE03CB10E480068006808B90A
:105BC000012000E000200446A91B22460A48006884
:105BD00000F094FB01F07CFB50B94FF08050074976
:105BE0000860BFF34F8FBFF36F8F01E001F070FBD0
:105BF000F8BD0000500000205400002004ED00E03B
:105C00000A490968096809B9012100E0002121B1A8
:105C10004FF0FF31064A116006E004490968C9687F
:105C2000C868034A416811607047000014000020F2
:105C30004000002070B5044601F0C8F90546074849
:105C40000068854204D200F00BF80120206001E0DA
:105C50000020206001480560284670BD5C000020DF
:105C60002DE9F8432DE021480068C06805681F4809
:105C70000068C068C468201D00F0ACF92046616A65
:105C80008847E06901281CD1A0694619AE4207D9AE
:105C900066602461211D1548006800F0BFF910E01E
:105CA000002003462A4601460090204601F0DCFB16
:105CB00007462FB940F292320DA113A0FFF770F8FA
:105CC00000BF0A480068006808B9012000E0002011
:105CD0000028C8D00548D0F800800F480068034964
:105CE00008600D48C0F80080BDE8F8834C00002033
:105CF0002E2E5C52544F535C536F757263655C7407
:105D0000696D6572732E63004572726F723A257306
:105D10002C25640D0A000000500000200B4800688C
:105D2000401C08B9012000E0002020B9F42208A19D
:105D300012A0FFF735F800BF502080F31188BFF3A1
:105D40004F8FBFF36F8F00BF00BFFEE760000020E2
:105D50002E2E5C52544F535C536F757263655C70AA
:105D60006F727461626C655C525644535C41524D73
:105D70005F434D335C706F72742E63004572726FB7
:105D8000723A25732C25640D0A00000008B500BF87
:105D90006846FFF73BFC044620460099FFF7F6FEF5
:105DA000FFF75EFEF4E770B5044600F05DF994F984
:105DB00045501AE0A06C38B100212046FFF7BEFD27
:105DC00088B100F085FB0EE0606A08B9012000E0B0
:105DD000002038B904F1240001F01EFA18B100F0D7
:105DE00077FB00E003E0681E45B2002DE2DC00BF57
:105DF000FF2084F8450000F07BF900F035F994F9B4
:105E0000445010E0206908B9012000E0002048B9A2
:105E100004F1100001F000FA08B100F059FB681E0F
:105E200045B200E001E0002DECDC00BFFF2084F86B
:105E3000440000F05DF970BD2DE9F04104464FF0DB
:105E4000000800F07FFC3E48006808B9FFF7F2FB4D
:105E50003C480068204000285FD1A4B1083404F019
:105E6000070080B104F00700C0F10800044404F00A
:105E7000070008B9012000E0002020B9BF2232A1AC
:105E80003CA0FEF78DFF002C47D03E4800688442BE
:105E900043D83D4E3046056801E02E462D686868BF
:105EA000A04202D228680028F7D125480068854220
:105EB00033D0306800F10808286830606868001B3B
:105EC000102813D92F1907F0070008B9012000E0A6
:105ED000002020B9EC221CA126A0FEF761FF686813
:105EE000001B78606C603846FFF7ACFC2549686899
:105EF0000968081A234908600846006823490968A8
:105F0000884203D21F480068204908600D4968682C
:105F10000968084368600020286001F0D9F908F09A
:105F2000070008B9012000E0002028B94FF496725C
:105F300005A110A0FEF734FF4046BDE8F081000047
:105F400074000020800000202E2E5C52544F535CC1
:105F5000536F757263655C706F727461626C655CBF
:105F60004D656D4D616E675C686561705F342E6371
:105F7000000000004572726F723A25732C25640D83
:105F80000A000000780000206C0000207C00002047
:105F90000648006830B10549096801F15000096DF3
:105FA000491C016001480068704700001000002093
:105FB000001F4FF080730360001F21F00103036096
:105FC000001F034B03601438026020387047000044
:105FD0001D5D000801460A69D1E901309860D1E9E8
:105FE000010358605068884201D1886850600020E1
:105FF00008611068401E10601068704700F10801C9
:1060000041604FF0FF31816000F10801C160016122
:1060100000210160704700210161704710B5024600
:106020000B685C1C0CB9106907E002F1080000E085
:106030004068446824689C42FAD944684C604C68C3
:10604000A160886041600A611468641C146010BD1E
:1060500042684A6093688B609368596091600861F8
:1060600003685B1C0360704710B500BF502080F3CD
:106070001188BFF34F8FBFF36F8F00BF0B480068CD
:10608000401C0A4908600846006801280DD10848EC
:106090000068C0B208B9012000E0002028B94FF420
:1060A000BD7204A10EA0FEF77BFE10BD60000020B3
:1060B00004ED00E02E2E5C52544F535C536F75720A
:1060C00063655C706F727461626C655C52564453B8
:1060D0005C41524D5F434D335C706F72742E6300B0
:1060E0004572726F723A25732C25640D0A00000008
:1060F00010B50B48006828B940F2811209A114A01C
:10610000FEF74EFE06480068401E05490860084636
:10611000006820B9002080F3118800BF00BF10BDC7
:10612000600000202E2E5C52544F535C536F7572EA
:1061300063655C706F727461626C655C5256445347
:106140005C41524D5F434D335C706F72742E63003F
:106150004572726F723A25732C25640D0A00000097
:1061600070B506463546002E35D0083D2C461A49F6
:1061700060680968084008B1012000E0002028B9E3
:106180004FF4A07215A120A0FEF70AFE206808B9FE
:10619000012000E0002028B940F241120FA11AA00E
:1061A000FEF7FEFD0C4960680968084098B1206858
:1061B00088B90949606809688843606000F0C2FADC
:1061C0001549606809680844134908602046FFF7CC
:1061D00039FB01F07DF870BD800000202E2E5C524E
:1061E000544F535C536F757263655C706F7274616A
:1061F000626C655C4D656D4D616E675C6865617074
:106200005F342E63000000004572726F723A25738E
:106210002C25640D0A0000007800002003484FF090
:10622000E021486107200861704700003F19010024
:1062300070B5FDF7D9FF0546102D11D305F1E0200B
:1062400090F8F04310480078844201DB012000E020
:10625000002028B94FF42A720CA117A0FEF7A0FD68
:106260001948006800F4E06018490968884201D8BC
:10627000012000E0002028B94FF42E7203A10EA0E7
:10628000FEF78EFD70BD0000640000202E2E5C52D3
:10629000544F535C536F757263655C706F727461B9
:1062A000626C655C525644535C41524D5F434D33C2
:1062B0005C706F72742E63004572726F723A257350
:1062C0002C25640D0A0000000CED00E068000020A1
:1062D000024600200BE0084B53F8303033B9064B30
:1062E00043F8301003EBC0035A6002E0401C08285A
:1062F000F1D300BF70470000A00000202DE9F0415D
:1063000005460E4617462C46FFF7AEFE94F94400AC
:10631000401C10B9002084F8440094F94500401C4A
:1063200010B9002084F84500FFF7E2FEA06B28B901
:106330003A46314604F1240000F0FCF82046FFF70D
:1063400032FDBDE8F081000070B504460025ACB117
:106350000F48006808B9012000E0002028B940F289
:10636000CF420CA111A0FEF71BFD00F0EBF90021BC
:106370002046FEF7E3FF00F0ABFF05463DB94FF0C6
:1063800080500E490860BFF34F8FBFF36F8F70BD11
:10639000480000202E2E5C52544F535C536F757290
:1063A00063655C7461736B732E6300004572726F7A
:1063B000723A25732C25640D0A00000004ED00E0FC
:1063C00070B50546FFF750FE15B92D48006800E08E
:1063D00028460446201DFFF7FDFD78B9E06A00EB72
:1063E0008000284951F8200040B994F82C10012071
:1063F000884025490968814323480160A06A18B193
:1064000004F11800FFF7E6FD20480068401C1F4912
:1064100008601B480068844209D1211D1C48FFF711
:1064200017FE1C480068401C1A49086009E01A4819
:106430000068401E184908602046FFF7DEF8FFF7A5
:10644000DFFBFFF755FE15480068C0B10C48006837
:10645000844214D11248006808B9012000E00020ED
:1064600028B940F265420FA114A0FEF799FC4FF045
:10647000805016490860BFF34F8FBFF36F8F70BD18
:1064800010000020E0000020280000203C00002038
:106490009C0300201C000020200000202C00002075
:1064A000480000202E2E5C52544F535C536F75727F
:1064B00063655C7461736B732E6300004572726F69
:1064C000723A25732C25640D0A00000004ED00E0EB
:1064D00001200149086070473400002070B504466F
:1064E0000D462CB940F6063207A10DA0FEF758FC68
:1064F0000F48016818312046FFF790FD012128461A
:10650000FEF71CFF70BD00002E2E5C52544F535CF2
:10651000536F757263655C7461736B732E630000F7
:106520004572726F723A25732C25640D0A000000C3
:106530001000002070B505460E4614462DB940F6F1
:10654000313209A10EA0FEF72BFC11480168183169
:106550002846FFF77DFD0CB14FF0FF36214630464F
:10656000FEF7ECFE70BD00002E2E5C52544F535CC3
:10657000536F757263655C7461736B732E63000097
:106580004572726F723A25732C25640D0A00000063
:106590001000002070B505462C46002D4BD0264932
:1065A000E06A0968C96A884245D2A06900F00040E3
:1065B00028B921480068C06AC0F12000A061E16AE2
:1065C00001EB81011D4A02EB81016069884201D122
:1065D000012000E0002050B3201DFFF7FBFC78B93C
:1065E000E06A00EB8000154951F8200040B994F8AA
:1065F0002C1001208840124909688143104801602D
:106600000D480068C06AE06294F82C1001208840B0
:106610000B49096808430A490860E16A01EB8101F6
:10662000064A02EB8100211DFFF712FD03E002483C
:106630000068C06AE06270BD10000020E000002029
:106640002800002010B504462CB940F6C13205A13F
:106650000AA0FEF7A5FB0D48006820600C48006802
:10666000606010BD2E2E5C52544F535C536F757298
:1066700063655C7461736B732E6300004572726FA7
:10668000723A25732C25640D0A00000038000020A2
:10669000240000201CB51A4800210B468222CDE9B7
:1066A000001018A1194800F051FC0446012C02D139
:1066B00000F0A0FE0446012C15D100BF502080F34D
:1066C0001188BFF34F8FBFF36F8F00BF4FF0FF30C4
:1066D0000F49086001200F49086000200E4908603A
:1066E00000F08EF80BE0601C08B1012000E00020F3
:1066F00028B940F2847209A10EA0FEF751FB1CBD1F
:106700004400002049444C4500000000B1560008F8
:10671000400000202C000020240000202E2E5C527F
:10672000544F535C536F757263655C7461736B7324
:106730002E6300004572726F723A25732C25640D2A
:106740000A00000002480068401C014908607047C8
:106750004800002010B51B48006818B101201A49F4
:1067600008602DE000201849086018480068B0FA59
:1067700080F0C0F11F0404EB8400154951F820009B
:1067800008B1012000E0002028B940F6F62211A14E
:1067900016A0FEF705FB04EB84010D4A02EB810015
:1067A00041684968416000F1080142688A4202D1AB
:1067B0004168496841604168C968104A116000BF7A
:1067C00010BD0000480000203400002028000020F8
:1067D000E00000202E2E5C52544F535C536F7572B4
:1067E00063655C7461736B732E6300004572726F36
:1067F000723A25732C25640D0A0000001000002059
:106800001CB52248014609780191FF21024611700A
:106810000146097800919DF8001001F050011C4AD2
:10682000117007211B4A116009E01A490968491EC5
:10683000184A11609DF800104906090E00919DF854
:10684000001001F080018029EFD012490968090287
:10685000104A11601146098801F4E06111600B4A89
:10686000019911700C48006840F470000A490860F2
:106870000846006840F070400860FFF7CFFC002039
:1068800006490860FDF77AFC00201CBD00E400E02A
:10689000640000206800002020ED00E0600000207F
:1068A00010B500BF502080F31188BFF34F8FBFF3A6
:1068B0006F8F00BF00F090FB18B14FF0805004497B
:1068C000086000BF002080F3118800BF10BD0000E9
:1068D00004ED00E02DE9F84305460E4690460DB163
:1068E000012000E0002028B94FF4C4720DA113A0CC
:1068F000FEF756FA0EB9002701E005FB06F707F18F
:106900005400FFF799FA044644B104F15409434690
:106910004A46314628460094FEF7DEFE2046BDE892
:10692000F88300002E2E5C52544F535C536F7572E7
:1069300063655C71756575652E6300004572726FE5
:10694000723A25732C25640D0A0000002DE9FF47DB
:1069500082B005460E461F464FF0000A2C462CB961
:1069600040F2DC4261A167A0FEF71AFA0EB9206C72
:1069700008B9012000E0002028B940F2DD425BA107
:1069800060A0FEF70DFA00F011FB08B9049808B9F1
:10699000012000E0002028B94FF49C6253A159A0C7
:1069A000FEF7FEF900BFFFF75FFBD4F83890B9F1AE
:1069B000000F3DD0D4F80C8031462046FEF7CAFDCA
:1069C000DFB9A9F10100A063206810B9FFF7E0FA70
:1069D0006060206908B9012000E0002010BB04F1CC
:1069E000100000F019FCE8B14FF0805049490860F0
:1069F000BFF34F8FBFF36F8F14E0C4F80C80606A51
:106A000008B9012000E0002060B904F1240000F082
:106A100003FC38B14FF080503E490860BFF34F8F00
:106A2000BFF36F8FFFF764FB012006B0BDE8F0876E
:106A3000049818B9FFF75CFB0020F6E7BAF1000FE5
:106A400004D16846FFF7FEFD4FF0010AFFF750FB47
:106A5000FFF778FEFFF708FB94F94400401C10B9DB
:106A6000002084F8440094F94500401C10B900202F
:106A700084F84500FFF73CFB04A9684600F014FACF
:106A800040BB2046FEF73EFFF0B1206830B9FFF76B
:106A9000EBFA6068FFF77EFDFFF72AFB04F12400A4
:106AA0000499FFF71BFD2046FFF77DF900F010FC6D
:106AB00000287FF478AF4FF0805016490860BFF38C
:106AC0004F8FBFF36F8F6EE72046FFF76CF900F032
:106AD000FFFB68E72046FFF766F900F0F9FB204668
:106AE000FEF710FF0028EED000209EE72E2E5C520D
:106AF000544F535C536F757263655C717565756552
:106B00002E6300004572726F723A25732C25640D56
:106B10000A00000004ED00E070B505460E462C4664
:106B20002CB940F21B121EA123A0FEF739F9FFF782
:106B30009BFAD4E90F12206801FB0200606000207C
:106B4000A0632068A060E06B401E226C216800FBFF
:106B50000210E060FF2084F8440084F845009EB9EC
:106B6000206908B9012000E00020A8B904F1100054
:106B700000F052FB80B14FF0805013490860BFF322
:106B80004F8FBFF36F8F07E004F11000FFF736FA65
:106B900004F12400FFF732FAFFF7AAFA012070BDD2
:106BA0002E2E5C52544F535C536F757263655C714B
:106BB000756575652E6300004572726F723A2573B4
:106BC0002C25640D0A00000004ED00E02DE9FF43D0
:106BD00083B0064688461D464FF0000934462CB95E
:106BE00040F2D92260A166A0FEF7DAF8B8F1000FF2
:106BF00001D1206C08B9012000E0002028B940F242
:106C0000DA2259A15EA0FEF7CBF8022D02D1E06B8B
:106C1000012801D1012000E0002028B940F2DB2248
:106C200051A157A0FEF7BCF800F0C0F908B90598CB
:106C300008B9012000E0002028B940F2DE224AA174
:106C40004FA0FEF7ADF800BFFFF70EFAA06BE16BA7
:106C5000884201D3022D38D12A4641462046FEF70C
:106C60008EFC0746A06C68B129462046FEF766FEFA
:106C700028B34FF0805046490860BFF34F8FBFF3F1
:106C80006F8F1CE0606A08B9012000E0002068B93D
:106C900004F1240000F0C0FA88B14FF080503C4964
:106CA0000860BFF34F8FBFF36F8F08E03FB14FF025
:106CB000805037490860BFF34F8FBFF36F8FFFF7E6
:106CC00017FA012007B0BDE8F083059818B9FFF75F
:106CD0000FFA0020F6E7B9F1000F04D101A8FFF781
:106CE000B1FC4FF00109FFF703FAFFF72BFDFFF7A7
:106CF000BBF994F94400401C10B9002084F844000A
:106D000094F94500401C10B9002084F84500FFF7B5
:106D1000EFF905A901A800F0C7F8F0B92046FEF781
:106D2000FEFDA0B104F110000599FFF7D7FB204646
:106D3000FFF739F800F0CCFA002885D14FF08050E9
:106D400013490860BFF34F8FBFF36F8F7CE7204676
:106D5000FFF729F800F0BCFA76E72046FFF723F8A2
:106D600000F0B6FA0020ADE72E2E5C52544F535C73
:106D7000536F757263655C71756575652E63000090
:106D80004572726F723A25732C25640D0A0000005B
:106D900004ED00E02DE9F05F80468A4615461E4668
:106DA00044462CB940F29F3235A13BA0FDF7F8FFD5
:106DB000BAF1000F01D1206C08B9012000E00020D9
:106DC00028B94FF468722EA133A0FDF7E9FF022E17
:106DD00002D1E06B012801D1012000E0002028B998
:106DE00040F2A13226A12CA0FDF7DAFFFFF720FA2E
:106DF00000BF5021EFF3118081F31188BFF34F8F53
:106E0000BFF36F8F00BF0746A06BE16B884201D3D1
:106E1000022E2BD194F945B0324651462046FEF75A
:106E2000AEFB0BF10100C8B9A06C40B13146204661
:106E3000FEF784FDB8B1B5B10120286013E0606AA7
:106E400008B9012000E0002068B904F1240000F036
:106E5000E3F940B13DB10120286004E00BF10100ED
:106E600040B284F845004FF0010901E04FF00009FD
:106E700000BF87F3118800BF4846BDE8F09F0000BF
:106E80002E2E5C52544F535C536F757263655C7168
:106E9000756575652E6300004572726F723A2573D1
:106EA0002C25640D0A0000002DE9F04104460D4632
:106EB0002CB940F6CB3219A11EA0FDF771FF2DB9F8
:106EC00040F6CC3215A11BA0FDF76AFFFFF7CCF806
:106ED0001C4807682868401C08B9002619E01A49B0
:106EE00020680968884204D06068B84201D8012649
:106EF0000FE06068381A2968884209D228686168FA
:106F0000791A401A28602046FFF79CFB002600E013
:106F10000126FFF7EDF83046BDE8F0812E2E5C52D9
:106F2000544F535C536F757263655C7461736B731C
:106F30002E6300004572726F723A25732C25640D22
:106F40000A00000024000020380000202DE9FF4F37
:106F500085B0804689461746DDE912ABB800FEF7DA
:106F60006BFF064656B15C20FEF766FF04460CB187
:106F7000266304E03046FFF7F3F800E000247CB11C
:106F80000020CDE900ABCDE902403A4649464046F3
:106F9000089BFEF7B9FB2046FEF71CFA012501E02D
:106FA0004FF0FF35284609B0BDE8F08F0549096864
:106FB00009B9012005E00449096809B9022000E087
:106FC000002070472C00002048000020014908687C
:106FD00070470000240000202DE9F0414FF0000828
:106FE00041480068002872D140480068451C3F486D
:106FF0000560EDB93E480068006808B9012000E06E
:10700000002028B940F6D9123AA140A0FDF7C8FEE9
:107010003748076841480068354908603F480760BD
:107020003F480068401C3E490860FEF7E9FD00BF8C
:107030003C48006885423CD300BF2D48006800688A
:1070400008B9012000E0002020B14FF0FF303549A1
:1070500008602DE026480068C068C4686668B542CC
:1070600002D23048066023E0201DFEF7B3FFA06A7D
:1070700018B104F11800FEF7ADFF94F82C100120B0
:10708000884029490968084327490860E16A01EBFB
:107090008101264A02EB8100211DFEF7D9FF244918
:1070A000E06A0968C96A8842C7D34FF00108C4E79B
:1070B00000BF1F480068C06A00EB80001B4951F800
:1070C0002000012801D94FF0010805E0FFE7194829
:1070D0000068401C174908601748006808B14FF065
:1070E00001084046BDE8F08148000020240000204F
:1070F000140000202E2E5C52544F535C536F757257
:1071000063655C7461736B732E6300004572726F0C
:10711000723A25732C25640D0A0000001800002027
:10712000380000204000002028000020E00000205F
:1071300010000020300000203400002070B505460B
:107140002C460026002D4BD026480068844201D1F1
:10715000012000E0002028B940F6C76222A128A043
:10716000FDF71EFE206D28B940F6C9621EA124A0BD
:10717000FDF716FE206D401E2065E16CE06A884236
:107180002ED0206D60BB201DFEF724FF78B9E06A89
:1071900000EB80001E4951F8200040B994F82C10F3
:1071A000012088401B49096881431A480160E06C4E
:1071B000E062E06AC0F12000A06194F82C10012088
:1071C000884014490968084312490860E16A01EBE4
:1071D00081010F4A02EB8100211DFEF739FF0126D4
:1071E000304670BD100000202E2E5C52544F535C70
:1071F000536F757263655C7461736B732E6300000B
:107200004572726F723A25732C25640D0A000000D6
:10721000E00000202800002070B50646F068C46831
:107220002CB940F661321AA11FA0FDF7B9FD04F197
:107230001800FEF7CFFE20480068A8B9201DFEF711
:10724000C9FE94F82C10012088401C4909680843A5
:107250001A490860E16A01EB8101194A02EB8100D9
:10726000211DFEF7F5FE04E004F118011548FEF7B4
:10727000EFFE1549E06A0968C96A884204D9012508
:1072800001201249086000E00025284670BD00007A
:107290002E2E5C52544F535C536F757263655C7451
:1072A00061736B732E6300004572726F723A2573BF
:1072B0002C25640D0A000000480000202800002052
:1072C000E00000208803002010000020340000208F
:1072D00070B5002400263448006828B94FF4FD62D8
:1072E00032A138A0FDF75CFDFEF7BEFE2E48006817
:1072F000401E2D4908600846006800284FD13548D7
:10730000006800284BD024E03348C068C46804F10A
:107310001800FEF75FFE201DFEF75CFE94F82C10AF
:10732000012088402D49096808432C490860E16A1A
:1073300001EB81012A4A02EB8100211DFEF788FE44
:107340002849E06A0968C96A884202D301202649AF
:1073500008602148006808B9012000E000200028EA
:10736000D2D00CB1FEF74CFC2048056865B100BFD7
:10737000FFF732FE10B101201B4908606D1E002D81
:10738000F6D10020194908601748006838B1012675
:10739000300717490860BFF34F8FBFF36F8FFEF7B9
:1073A000A7FE304670BD0000480000202E2E5C5223
:1073B000544F535C536F757263655C7461736B7388
:1073C0002E6300004572726F723A25732C25640D8E
:1073D0000A00000020000020880300202800002070
:1073E000E0000020100000203400002030000020C9
:1073F00004ED00E01CB50024FEF748F80B480068D7
:1074000058B10B481F2100234FF48272CDE90010C0
:1074100008A10A48FFF79AFD04462CB940F233123E
:1074200007A10DA0FDF7BCFC20461CBD54000020A8
:1074300058000020546D7220537663008D5D000863
:107440002E2E5C52544F535C536F757263655C749F
:10745000696D6572732E63004572726F723A25739F
:107460002C25640D0A0000002DE9FF4704460D4657
:1074700016461F46DDF830804FF000092CB94FF456
:10748000D37217A11CA0FDF78BFC1F48006810B336
:10749000009501960294062D15DAFFF787FD022864
:1074A00008D100234246694617480068FFF78EFB63
:1074B000814610E000231A46694613480068FFF72A
:1074C00085FB814607E000233A4669460E4800687E
:1074D000FFF760FC8146484604B0BDE8F087000035
:1074E0002E2E5C52544F535C536F757263655C74FF
:1074F000696D6572732E63004572726F723A2573FF
:107500002C25640D0A000000540000202C75000892
:1075100000000020A0000000C04D0008CC7500084D
:10752000A0000020D8570000D04D00080000000047
:10753000000000000000000000000000000000004B
:10754000000000000000000000000000000000003B
:10755000000000000000000000000000000000002B
:10756000000000000000000000000000000000001B
:10757000000000000000000000000000000000000B
:10758000000000000000000000000000AAAAAAAA53
:1075900000000000000000000000000000000000EB
:1075A00000000000000000000000000000000000DB
:1075B00001000000000000000102030401020304B6
:0C75C0000607080902040608000000008D
:04000005080041317D
:00000001FF
