:020000040800F2
:1000000068580020F10100088D15000885150008CA
:100010008915000869030008C51A000800000000DF
:10002000000000000000000000000000590100086E
:100030006D030008000000009D010008B9150008CC
:100040000B0200080B0200080B0200080B0200085C
:100050000B0200080B0200080B0200080B0200084C
:100060000B0200080B0200080B0200080B0200083C
:100070000B0200080B0200080B0200080B0200082C
:100080000B0200080B0200080B0200080B0200081C
:100090000B0200080B0200080B0200080B0200080C
:1000A0000B0200080B0200080B0200080B020008FC
:1000B0000B0200080B020008211600080B020008C2
:1000C0000B0200080B0200080B0200080B020008DC
:1000D0000B020008891A00080B0200080B02000836
:1000E0000B0200080B0200080B0200080B020008BC
:1000F0000B0200080B0200080B0200080B020008AC
:100100000B0200080B0200080B0200080B0200089B
:100110000B0200080B0200080B0200080B0200088B
:100120000B0200080B0200080B0200080B0200087B
:10013000DFF810D000F0A8F800480047651F00085D
:10014000AFF3008068580020EFF308807047EFF3AA
:100150000980704768467047224B19680868B0E804
:10016000F00F80F30988BFF36F8F4FF0000080F32A
:1001700011884EF00D0E7047000000000648006820
:10018000006880F3088862B661B6BFF34F8FBFF393
:100190006F8F00DF00BF00BF08ED00E0EFF30980C4
:1001A000BFF36F8F0F4B1A6820E9F00F106008B58E
:1001B0004FF0500080F31188BFF34F8FBFF36F8F64
:1001C00003F036F94FF0000080F31188BDE80840D5
:1001D00019680868B0E8F00F80F30988BFF36F8FE3
:1001E000704700BF10000020EFF30580704700004B
:1001F0000648804706480047FEE7FEE7FEE7FEE7C1
:10020000FEE7FEE7FEE7FEE7FEE7FEE7C9150008AA
:100210003101000840EA01039B0703D009E008C947
:10022000121F08C0042AFAD203E011F8013B00F8BB
:10023000013B521EF9D27047D2B201E000F8012B07
:10024000491EFBD270470022F6E710B513460A4656
:1002500004461946FFF7F0FF204610BD30B50B46A7
:10026000014600202022012409E021FA02F59D42E6
:1002700005D303FA02F5491B04FA02F52844151EBA
:10028000A2F10102F1DC30BD064C074D06E0E0684A
:1002900040F0010394E8070098471034AC42F6D3CD
:1002A000FFF74AFF00420008204200081CB5012465
:1002B00002F048FD1348022100233222CDE900104C
:1002C00011A1144803F0B0FC0446012C02D112A085
:1002D00001F0FAFB1748032100233222CDE9001078
:1002E00015A1184803F0A0FC0446012C02D116A069
:1002F00001F0EAFB1B48006802F0D0FE02F066FD48
:100300001CBD0000080000206C6564305F746173E0
:100310006B000000091F0008B4B4BDA86C65643010
:100320005F7461736BC8CECEF1B3C9B9A6210D0A53
:10033000000000000C0000206C6564315F74617384
:100340006B000000391F0008B4B4BDA86C656431AF
:100350005F7461736BC8CECEF1B3C9B9A6210D0A23
:10036000000000000000002000BFFEE77047000012
:1003700070B50446002594F82100022803D004201B
:10038000A0630125C1E02068006820F00E0021680C
:1003900008602068006820F00100216808605C495E
:1003A0002068884252D95A4978392068884201D158
:1003B000012047E0564964392068884201D1102065
:1003C00040E0534950392068884201D1801539E016
:1003D0004F493C392068884201D1801432E04C49B1
:1003E00028392068884202D14FF480302AE04849F9
:1003F00014392068884202D14FF4801022E0444929
:100400002068884201D140041CE0424920688842AB
:1004100001D1012016E03F4914312068884201D102
:1004200010200FE03B4928312068884201D1801517
:1004300008E038493C312068884201D1801401E04D
:100440004FF480303349091F086051E03049783952
:100450002068884201D1012047E02D496439206895
:10046000884201D1102040E0294950392068884253
:1004700001D1801539E026493C392068884201D1F4
:10048000801432E0224928392068884202D14FF492
:1004900080302AE01E4914392068884202D14FF486
:1004A000801022E01A492068884201D140041CE0F3
:1004B00018492068884201D1012016E015491431FD
:1004C0002068884201D110200FE0124928312068AD
:1004D000884201D1801508E00E493C3120688842ED
:1004E00001D1801401E04FF480300949803948601F
:1004F000012084F8210000BF002084F8200000BF04
:10050000606B10B12046616B8847284670BD0000C3
:1005100080000240080402402DE9F847024600230B
:100520009C467BE14FF0010808FA03F4D1F8008003
:1005300008EA0400A0427DD1DFF8F4A2D1F80480DB
:10054000A8EB0A09D0453AD014DCB8F1030F50D01B
:1005500009DCB8F1000F31D0B8F1010F1CD0B8F1AF
:10056000020F49D120E0B8F1110F18D0B8F1120FE5
:1005700042D11EE0B9F5881F25D006DCB9F5803FD1
:1005800020D0B9F5801F37D11AE0B9F5001F18D077
:10059000B9F5041F30D117E0D1F80CC02DE0D1F827
:1005A0000C8008F1040C28E0D1F80C8008F1080C4C
:1005B00023E0D1F80C8008F10C0C1EE000BF00BF56
:1005C00000BF00BF00BF00BFD1F80880B8F1000F26
:1005D00002D14FF0040C0BE0D1F80880B8F1010F04
:1005E00003D14FF0080C146102E04FF0080C546185
:1005F00003E04FF0000C00E000BF00BFFF2801D86F
:10060000904601E002F104084646FF2802D84FEA6E
:10061000830803E0A3F108084FEA88084746D6F8A4
:1006200000804FF00F0909FA07F928EA09080CFAC7
:1006300007F900E07AE048EA0908C6F80080D1F836
:10064000048008F08058B8F1805F6FD100BFDFF8F8
:10065000E481D8F8188048F00108DFF8D891C9F88B
:100660001880C846D8F8188008F00108CDF8008036
:1006700000BF00BF4FEAB9384FEA930958F8295034
:100680004FEA83784FEA18794FF00F0808FA09F813
:1006900025EA0805DFF8A081424502D14FF00008A5
:1006A00024E0DFF89881424502D14FF001081DE0B7
:1006B000DFF88C81424502D14FF0020816E0DFF8E6
:1006C0008481424502D14FF003080FE0DFF87881C2
:1006D000424502D14FF0040808E0DFF8708142453E
:1006E00002D14FF0050801E04FF006084FEA837988
:1006F0004FEA197908FA09F848EA0505DFF8508148
:100700004FEA930948F82950D1F8048008F480385A
:10071000B8F5803F0BD1DFF83C81D8F8008048EA7B
:100720000008DFF83091C9F800800AE075E0DFF8D2
:100730002481D8F8008028EA0008DFF81891C9F869
:100740000080D1F8048008F40038B8F5003F0ED1DD
:10075000DFF8008108F10408D8F8008048EA0008B2
:10076000DFF8F09009F10409C9F800800DE0DFF826
:10077000E48008F10408D8F8008028EA0008DFF8CF
:10078000D49009F10409C9F80080D1F8048008F474
:100790008018B8F5801F0ED1DFF8B88008F108087E
:1007A000D8F8008048EA0008DFF8A89009F10809A5
:1007B000C9F800800DE0DFF89C8008F10808D8F83F
:1007C000008028EA0008DFF88C9009F10809C9F8D0
:1007D0000080D1F8048008F40018B8F5001F0ED18D
:1007E000DFF8708008F10C08D8F8008048EA0008AB
:1007F000DFF8609009F10C09C9F800800DE0DFF81E
:10080000548008F10C08D8F8008028EA0008DFF8C6
:10081000449009F10C09C9F800805B1CD1F80080F4
:1008200028FA03F8B8F1000F7FF47CAEBDE8F88732
:10083000000011100010024000080140000C0140AF
:10084000001001400014014000180140001C01404C
:1008500008000140000401400AB1016101E00B04FD
:100860000361704701480068704700008400002061
:1008700010B590B000241A48006840F010001849E4
:1008800008600F2000F02EF800F052F801200690CA
:10089000000407900020089002200D90C1030E91E3
:1008A0004FF4E0110F9106A800F008FA04460CB1CD
:1008B00000BFFEE70F20019002200290002003906D
:1008C0004FF48060049000200590022101A800F000
:1008D000BFF804460CB100BFFEE7002010B010BD09
:1008E0000020024070B504460E4800784FF47A713B
:1008F000B1FBF0F00C490968B1FBF0F5284600F0B7
:100900000FFC08B1012070BD102C07D20022214637
:10091000501E00F04BF80548046001E00120F2E7AA
:100920000020F0E78C0000209000002088000020CC
:1009300008B500BF1348806940F001001149886183
:100940000846806900F00100009000BF00BF00BFB2
:100950000846C06940F08050C8610846C06900F090
:100960008050009000BF00BF032000F05DF800BF82
:100970000549486820F0E06040F00070486000BF22
:1009800008BD00000010024000000140014608467A
:10099000002809DB00F01F0301229A4043099B0055
:1009A00003F1E023C3F8002100BF70472DE9F05F99
:1009B00080460D461646002701F096F80746394650
:1009C0002A46334601F00700C0F1070ABAF1040FC6
:1009D00002D94FF0040A01E0C0F1070AD14600F144
:1009E000040ABAF1070F02D24FF0000A01E0A0F1A9
:1009F000030AD4464FF0010A0AFA09FAAAF1010AD9
:100A00000AEA020A0AFA0CFA4FF0010B0BFA0CFB85
:100A1000ABF1010B0BEA030B4AEA0B0421464046FB
:100A200001F06AF8BDE8F09F00BF00F00702064B36
:100A300019684FF6FF031940044B0B4343EA0221A8
:100A4000014B196000BF70470CED00E00000FA0593
:100A500070B504460D460CB9012070BD5A480068B7
:100A600000F00700A8420ED25748006820F00700A7
:100A70002843554908600846006800F00700A8426E
:100A800001D00120E9E7207800F0020002281DD102
:100A9000207800F00400042805D14C48406840F458
:100AA000E0604A494860207800F00800082805D135
:100AB0004648406840F460504449486043484068B4
:100AC00020F0F000A168084340494860207800F019
:100AD000010078B36068012806D13C48006800F442
:100AE000003090B90120B8E76068022806D1374885
:100AF000006800F0007040B90120AEE7334800689C
:100B000000F0020008B90120A7E73048406820F053
:100B10000300616808432D494860FFF7A3FE0646BD
:100B200009E0FFF79FFE801B41F28831884202D91D
:100B3000032092E707E02548406800F00C00616858
:100B4000B0EB810FEDD12048006800F00700A8420B
:100B50000ED91D48006820F0070028431A49086094
:100B60000846006800F00700A84201D0012074E7A1
:100B7000207800F00400042807D11448406820F4CD
:100B8000E060E168084311494860207800F00800FF
:100B9000082808D10D48406820F46050216940EAD7
:100BA000C1000A49486000F03FF808494968C1F3AC
:100BB0000311074A515CC8400649086006480068AE
:100BC000FFF790FE002048E700200240001002409E
:100BD000E8410008900000208800002001480068DB
:100BE000704700009000002000B5FFF7F7FF0449B0
:100BF0004968C1F30221034A515CC84000BD0000AE
:100C000000100240F841000800B5FFF7E7FF044973
:100C10004968C1F3C221034A515CC84000BD0000CD
:100C200000100240F8410008F0B585B00FF26C0CDE
:100C30009CE8E01001A8A0E8E0101CA52D68009534
:100C400000210022002300240020194D696801F0D2
:100C50000C05F5B1042D02D0082D19D101E015487D
:100C600019E001ADC1F38346AC5D01F4803555B1A7
:100C70000F4D6D68C5F340451DF805200D4D6543CA
:100C8000B5FBF2F302E00C4D04FB05F3184602E05D
:100C900000BF084800BF00BF05B0F0BD0203040557
:100CA000060708090A0B0C0D0E0F101001020000B8
:100CB0000010024000127A0000093D00F8B5044619
:100CC0000CB90120F8BD207800F00100002878D090
:100CD000F848406800F00C0004280CD0F548406843
:100CE00000F00C00082811D1F248406800F4803070
:100CF000B0F5803F0AD1EF48006800F400300028CA
:100D00005FD0606800285CD10120DBE700BF60682D
:100D1000B0F5803F06D1E748006840F48030E549EF
:100D2000086028E0606858B9E248006820F4803024
:100D3000E04908600846006820F4802008601AE056
:100D40006068B0F5A02F0BD1DA48006840F480202D
:100D5000D84908600846006840F4803008600AE01E
:100D6000D448006820F48030D24908600846006802
:100D700020F48020086000BF606888B1FFF772FD32
:100D8000054606E0FFF76EFD401B642801D90320ED
:100D900098E7C848006800F400300028F2D010E05E
:100DA000FFF760FD054606E0FFF75CFD401B642889
:100DB00001D9032086E7BF48006800F4003000280E
:100DC000F2D1207800F00200022857D1B9484068DB
:100DD00000F00C0050B1B748406800F00C00082843
:100DE00018D1B448406800F4803098B9B148006820
:100DF00000F0020020B12069012801D0012061E744
:100E0000AC48006820F0F800616940EAC100A949D7
:100E1000086033E02069E8B10120A7490860FFF7C6
:100E200021FD054606E0FFF71DFD401B022801D904
:100E3000032047E79F48006800F002000028F2D036
:100E40009C48006820F0F800616940EAC1009949B7
:100E5000086013E0002098490860FFF703FD05468D
:100E600006E0FFF7FFFC401B022801D9032029E719
:100E70009048006800F002000028F2D1207800F0CD
:100E8000080008282DD1A069B8B101208B4908605D
:100E9000FFF7E8FC054606E0FFF7E4FC401B0228EC
:100EA00001D903200EE78348406A00F002000028C1
:100EB000F2D0012000F06CFB13E000207F490860B5
:100EC000FFF7D0FC054606E0FFF7CCFC401B0228EC
:100ED00001D90320F6E67748406A00F002000028B6
:100EE000F2D1207800F00400042873D10027714863
:100EF000C06900F0805070B900BF6E48C06940F012
:100F000080506C49C8610846C06900F0805000906C
:100F100000BF00BF01276A48006800F48070B0B9C4
:100F20006748006840F4807065490860FFF79AFCE4
:100F3000054606E0FFF796FC401B642801D9032014
:100F4000C0E65F48006800F480700028F2D000BF5F
:100F5000E068012806D15748006A40F00100554971
:100F6000086227E0E06858B95248006A20F00100A2
:100F7000504908620846006A20F00400086219E03F
:100F8000E06805280BD14B48006A40F0040049494D
:100F900008620846006A40F0010008620AE045481D
:100FA000006A20F00100434908620846006A20F008
:100FB0000400086200BFE068A0B1FFF753FC0546DB
:100FC00009E0FFF74FFC401B41F28831884202D90B
:100FD000032077E622E03748006A00F0020000288C
:100FE000EFD012E0FFF73EFC054608E0FFF73AFCC1
:100FF000401B41F28831884201D9032062E62D4826
:10100000006A00F002000028F0D1012F05D1294824
:10101000C06920F080502749C86100BFE069C8B3AB
:101020002448406800F00C00082860D0E0690228DD
:1010300048D1002020490866FFF714FC054606E069
:10104000FFF710FC401B022801D903203AE619489B
:10105000006800F000700028F2D1206AB0F5803FEF
:1010600007D11448406820F40030A16808431149B2
:101070004860D4E9080108430E49496821F4741115
:1010800008430C49486001200B490866FFF7EAFB5A
:10109000054607E03DE0FFF7E5FB401B022801D9CC
:1010A00003200FE60348006800F000700028F2D02B
:1010B0002FE0000000100240000042428004424243
:1010C00000700040002014490866FFF7CBFB05467E
:1010D00006E0FFF7C7FB401B022801D90320F1E51A
:1010E0000E48006800F000700028F2D111E0E069BD
:1010F000012800D1E6E50948466806F48031206AF7
:10110000814204D106F47011606A814201D001204D
:10111000D8E50020D6E50000000042420010024061
:1011200070B504462546681EB0F1807F01D30120CA
:101130000FE0681E4FF0E02148610F214FF0FF30B3
:1011400000F0DAFC00204FF0E02188610720086100
:10115000002070BD10B5024600BF92F83C00012887
:1011600001D1022010BD012082F83C0000BF022006
:1011700082F83D00106843681068846823F07003AB
:101180000868034324F080044868044310684360FF
:1011900010688460012082F83D0000BF002082F8C2
:1011A0003C0000BF00BFDDE710B504460CB90120CC
:1011B00010BD94F83D0028B9002084F83C0020467A
:1011C00000F00CF8022084F83D00211D206800F09A
:1011D00055FA012084F83D000020E9E770470146F8
:1011E0000868C06840F001000B68D8600868806833
:1011F00000F00702062A05D00868006840F00100E8
:101200000B68186000207047704700002DE9F04718
:101210000446206805682068C668206847694FF062
:101220000008C14605F00F08B8F1000F0AD105F01B
:10123000200038B106F0200020B1204600F096FAD8
:10124000BDE8F087B8F1000F6DD007F0010018B9C4
:1012500006F49070002866D005F0010030B106F465
:10126000807018B1E06B40F00100E06305F004000D
:1012700030B107F0010018B1E06B40F00200E0630C
:1012800005F0020030B107F0010018B1E06B40F04A
:101290000400E06305F0080030B107F0010018B168
:1012A000E06B40F00800E063E06B68B305F02000FD
:1012B00028B106F0200010B1204600F057FA20684F
:1012C0004069C0F38019E06B00F0080010B9B9F173
:1012D000000F22D0204600F029FA2068406900F073
:1012E0004000B0B12068406920F0400021684861AA
:1012F000606B50B11748616B4863606BFFF738F85B
:1013000010B1606B416B88470CE02046FFF77CFF13
:1013100008E02046FFF778FF04E02046FFF774FF5F
:101320000020E0638CE705F0800030B106F080001B
:1013300018B1204600F03EFB82E705F0400030B1D6
:1013400006F0400018B1204600F000FA78E700BF30
:1013500076E700001917000810B504460CB9012003
:1013600010BDA06900B100E000BF94F8390028B9B1
:10137000002084F83800204600F027F8242084F864
:1013800039002068C06820F400502168C8602046F9
:1013900000F040FA2068006920F49040216808615C
:1013A0002068406920F02A00216848612068C068F0
:1013B00040F400502168C8600020E063202084F8D9
:1013C000390084F83A000020CAE770472DE9F84355
:1013D00004460D4616461F464FF0000994F83A00A1
:1013E000202860D105B116B90120BDE8F88300BFFF
:1013F00094F83800012801D10220F6E7012084F892
:10140000380000BF0020E063222084F83A00FFF794
:1014100029FA8146A685E68539E0E08D401EE08503
:10142000A068B0F5805F1BD14B46002220212046EA
:10143000009700F0F3FA08B10320D6E7A846206928
:1014400038B920684068C0F30800A8F80000AD1C57
:101450001DE020684068C0B2A8F800006D1C16E0CE
:101460004B46002220212046009700F0D7FA08B111
:101470000320BAE7206920B92068406805F8010B0D
:1014800005E02068406800F07F0005F8010BE08D62
:101490000028C2D1202084F83A0000BF002084F840
:1014A000380000BFA1E702209FE770472DE9F8430D
:1014B00004460D4616461F464FF0000994F83900C1
:1014C00020285CD105B116B90120BDE8F88300BF22
:1014D00094F83800012801D10220F6E7012084F8B1
:1014E000380000BF0020E063212084F83900FFF7B6
:1014F000B9F98146A684E6842BE0E08C401EE084A6
:10150000A068B0F5805F16D14B46002280212046AE
:10151000009700F083FA08B10320D6E7A846B8F890
:101520000000C0F3080021684860206908B9AD1CBC
:101530000FE06D1C0DE04B460022802120460097F5
:1015400000F06CFA08B10320BFE715F8010B216821
:101550004860E08C0028D0D14B4600224021204634
:10156000009700F05BFA08B10320AEE7202084F872
:10157000390000BF002084F8380000BFA5E7022032
:10158000A3E7704700BFFEE700BFFEE7704700001B
:1015900008B508490968C9084FF47A72B1FBF2F13D
:1015A0004143009100BF00BF00994A1E00920029EC
:1015B000F9D108BD9000002010B502F065FB0128AC
:1015C00001D001F0DBFF10BD1148006840F00100C0
:1015D0000F490860084640680E4908400C494860B9
:1015E000084600680C490840094908600846006838
:1015F00020F4802008600846406820F4FE0048601F
:101600004FF41F008860C803044908607047000059
:10161000001002400000FFF8FFFFF6FE08ED00E0BA
:1016200010B511480068C06800F00100D0B16FF03B
:1016300001000D49096808610C480068401C0B490D
:101640000860084600684FF47A71B0FBF1F201FBC4
:10165000120038B905480068B0FBF1F4214604A037
:1016600000F032FA10BD0000D80000200400002075
:10167000CAB1BCE43A2564C3EB0A000010B50268A5
:10168000204B98420ED0204B98420BD0B0F1804FA7
:1016900008D01E4B984205D01D4B984202D01D4BDE
:1016A000984203D122F070024B681A43154B9842BE
:1016B0000ED0154B98420BD0B0F1804F08D0134B91
:1016C000984205D0124B984202D0124B984203D157
:1016D00022F44072CB681A4322F080034C6943EA3B
:1016E000040202608B68C3620B688362054B9842F8
:1016F00002D0054B984201D10B690363012343617A
:1017000010BD0000002C01400034014000040040E6
:1017100000080040000C004070B505466C6A0020CF
:10172000E085E0842046FFF76FFD70BD0168C96861
:1017300021F490710268D1600168496921F00101CA
:1017400002685161202180F83A10704710B50446B4
:101750002068C06820F040002168C860202084F81C
:1017600039002046FFF70DFF002010BD70B504467C
:1017700094F83A0022284AD1A068B0F5805F13D1CE
:10178000A56A206940B920684068C0F30800288035
:10179000A06A801CA06219E020684068C0B228805E
:1017A000A06A401CA06211E0206938B92068406836
:1017B000C1B2A26A501CA062117007E020684068A4
:1017C00000F07F01A26A501CA0621170E08D401EE3
:1017D00080B2E085C8B92068C06820F02000216888
:1017E000C8602068C06820F480702168C8602068E4
:1017F000406920F0010021684861202084F83A0007
:101800002046FFF752FE002070BD0020FCE70220BA
:10181000FAE7000070B504462168096921F44051D7
:10182000E2681143226811612269A168114362696B
:1018300041EA02052168C96841F20C6291432943DB
:101840002268D1602168496921F44071A26911437D
:1018500022685161564A2168914254D1FFF7D4F968
:1018600000EBC00101EB001162689200B1FBF2F1E4
:1018700000EBC00202EB001263689B00B2FBF3F2C4
:101880006423B2FBF3F202EBC20303EB0212A1EBFF
:101890008201322202EB01116422B1FBF2F101F06C
:1018A000F00100EBC00202EB001263689B00B2FB88
:1018B000F3F26423B2FBF3F201EB021200EBC0017E
:1018C00001EB001163689B00B1FBF3F100EBC00377
:1018D00003EB00136668B600B3FBF6F36426B3FBB4
:1018E000F6F303EBC30606EB0313A1EB83013223EC
:1018F00003EB01116423B1FBF3F101F00F0111447B
:101900002268916053E0FFF76FF900EBC00101EB33
:10191000001162689200B1FBF2F100EBC00202EB31
:10192000001263689B00B2FBF3F26423B2FBF3F294
:1019300002EBC20303EB0212A1EB8201322202EBA3
:1019400001116422B1FBF2F101F0F00100EBC002E1
:1019500002EB001263689B00B2FBF3F26423B2FB5C
:10196000F3F201EB021200EBC00101EB001163681E
:101970009B00B1FBF3F100EBC00303EB00136668BF
:10198000B600B3FBF6F36426B3FBF6F303EBC30632
:1019900006EB0313A1EB8301322303EB0111642354
:1019A000B1FBF3F101F00F0111442268916070BDA9
:1019B00000380140014691F8390021282CD188686F
:1019C000B0F5805F0FD10A6A1088C0F308000B6879
:1019D0005860086918B9086A801C086209E0086A3A
:1019E000401C086205E00B6A581C086218780B68F6
:1019F0005860C88C401E80B2C88458B90868C06856
:101A000020F080000B68D8600868C06840F0400093
:101A10000B68D860002070470220FCE72DE9F041F8
:101A200004460D4617469846069E21E0701CF8B104
:101A30002EB1FEF717FFA0EB0800B04218D92068BE
:101A4000C06820F4D0702168C8602068406920F028
:101A5000010021684861202084F8390084F83A00A8
:101A600000BF002084F8380000BF0320BDE8F081EB
:101A7000206800682840A84201D1012000E0002031
:101A8000B842D3D00020F1E708B50D4800680068DF
:101A9000C0F3401050B14FF47A73012269460848F0
:101AA000FFF794FC0121684601F0ECF86FF020008C
:101AB0000349096808600248FFF7A8FB08BD000059
:101AC0009800002000BFFEE70FB4054B10B503A936
:101AD000044A029800F034F810BC5DF814FB0000D2
:101AE000DD1E00089400002002480068C0F30220B8
:101AF000704700000CED00E010B5002804DB0A0779
:101B0000130E054A135406E00A07140E034A00F0A8
:101B10000F031B1FD45410BD00E400E018ED00E0DB
:101B200002E008C8121F08C1002AFAD170477047A6
:101B3000002001E001C1121F002AFBD17047000004
:101B40002DE9FF4F8BB09A460F460546002606E06A
:101B500025280BD052460D9990476D1C761C28788D
:101B60000028F5D10FB03046BDE8F08F0024A04624
:101B70000122604900E0044315F8013F203B02FACE
:101B800003F00842F7D128782E2817D115F8010F55
:101B900044F004042A280ED06FF02F022878A0F118
:101BA000300109290AD808EB880102EB410100EB5A
:101BB00001086D1CF2E757F8048B6D1C2878692822
:101BC0003ED006DC0028CDD063280BD0642804D199
:101BD00036E0732810D075284BD052460D999047A7
:101BE000761C85E017F8040B8DF8000000208DF8B6
:101BF0000100E946012003E057F8049B4FF0FF3055
:101C000061074FF0000401D40AE0641C44450DDA7A
:101C10008442FADB19F804100029F6D106E0641CAE
:101C20008442FCDB19F804100029F8D1264404E0B2
:101C300019F8010B52460D999047641EF8D257E0EF
:101C400001CF4FF00A0B002802DA40422D2102E0BA
:101C5000210504D52B218DF82410012103E0E10793
:101C600005D02021F7E70DF1200908910CE00021B3
:101C7000F9E701CF4FF00A0BF9E75946FEF7EEFA04
:101C800001F1300209F8012D0028F6D1ADEB090071
:101C900000F1200B600701D44FF00108D84502DDA8
:101CA000A8EB0B0000E000208046002406E009A815
:101CB0005246005D0D999047641C761C089884423A
:101CC000F5DB04E0302052460D999047761CB8F1C0
:101CD0000001A8F10108F5DC05E019F8010B5246F6
:101CE0000D999047761CBBF10001ABF1010BF4DCC0
:101CF0006D1C34E70928010000B585B000BF2E48EF
:101D0000806940F004002C4988610846806900F031
:101D10000400009000BF00BF00BF0846806940F08B
:101D2000200088610846806900F02000009000BF14
:101D300000BF00BF0846806940F4804088610846C3
:101D4000806900F48040009000BF00BF00BF0846DB
:101D5000806940F0010088610846806900F0010058
:101D6000009000BF00BF48150190022002900120A2
:101D700003900320049001A91048FEF7CDFB4FF417
:101D8000806001900020029001A90C48FEF7C4FB7E
:101D90004FF4807001900120029003900320049082
:101DA00001A90648FEF7B8FB0420019001A90448E8
:101DB000FEF7B2FB05B000BD001002400008014074
:101DC000001401403EB505460C4600BF2048C069DE
:101DD00040F004001E49C8610846C06900F00400D4
:101DE000009000BF00BF1B481B490860681E486088
:101DF000002119488160601E1749C86000211648FB
:101E0000016180218161FFF7CFF910B113A0FFF7C5
:101E10005BFE202001900020029001A90E48FFF7F0
:101E200099F910B10DA0FFF74FFE002204211E20EA
:101E3000FEF7BCFD1E20FEF7A9FD07480068C0683C
:101E400040F0010004490968C86000F011F83EBD87
:101E50000010024000080040D8000020B6A8CAB117
:101E6000C6F734B3F5CABCBBAFCAA7B0DC0A0000E2
:101E700010B50248FFF7B3F910BD0000D8000020EC
:101E800010B54FF4E1510120FFF79CFF10BD000099
:101E900010B504460F481049086008464460002108
:101EA0008160C160016181610C214161FFF754FAD9
:101EB0002520FEF76BFD002203212520FEF776FD8D
:101EC00005480068C06840F0200003490968C86000
:101ED00010BD0000003801409800002013B50C46EA
:101EE0004FF47A73012269460648FFF7DFFA00BF14
:101EF000044800680068C0F3C0100028F8D00098BB
:101F00001CBD00009800002012E0012211020948C7
:101F1000FEF7A2FC4FF4FA7001F084F800224FF4AF
:101F200080710448FEF798FC4FF4FA7001F07AF8DB
:101F3000EBE700000008014011E0012204210848FD
:101F4000FEF78AFC4FF4FA7001F06CF800220421CD
:101F50000348FEF781FC4FF4FA7001F063F8ECE7F8
:101F6000001401401CB50124FEF782FCFFF7C4FEFB
:101F70004FF4E130FFF78CFFFFF782FF0DA0FFF772
:101F8000A3FD1048012100238022CDE900100EA1FD
:101F9000114801F049FE0446012C05D10FA0FFF7BE
:101FA00093FD01F0E5F902E04FF0FF301CBD00BFEA
:101FB000FEE700004672656552544F532054657326
:101FC00074210A00000000204170705461736B435B
:101FD0007265617465000000AD020008BFAAC6F416
:101FE000C8CECEF1B5F7B6C80A0000002DE9F04121
:101FF00005460E461C4807681C480068001D00F096
:1020000057FE50B91948006890F82C1001208840FC
:1020100017490968814316480160681C38B936B110
:1020200012480168091D134800F080FE1AE07C196F
:102030000E4800684460BC4207D20C480168091D84
:102040000D48006800F058FE0CE008480168091DC2
:102050000A48006800F050FE09480068844201D236
:1020600007480460BDE8F081240000201000002033
:102070002800002028040020180000201400002060
:102080004000002010B5044600F05CFE24480068C3
:10209000401C234908602348006840B92148046077
:1020A0000846006801280DD100F0F0F90AE01E484A
:1020B000006838B91B480068C06AE16A884201D8E4
:1020C0001848046019480068401C18490860084610
:1020D0000068606494F82C10012088401449096855
:1020E000084313490860E16A01EB8101114A02EBE0
:1020F0008100211D00F01AFE00F068FE0A48006809
:1021000068B108480068C06AE16A884207D24FF0A7
:10211000805009490860BFF34F8FBFF36F8F10BD28
:1021200020000020100000202C0000203C00002097
:10213000280000205801002004ED00E010B500F058
:1021400001FE10480068D0B90F4800F0C5FD0F48E7
:1021500000F0C2FD0C480E4908600C480D490860AB
:1021600000221021052001F023FA064908600846E4
:10217000006820B108A10348006800F017FF00F0D4
:1021800025FE10BD540000203C0400205004002017
:102190004C00002050000020546D725100000000DF
:1021A00070B523E001F03CF91348006808B901203C
:1021B00000E00020054601F0F9FEBDB900F0C2FDC7
:1021C0000D48C068C468201D00F072FD0B4800680F
:1021D000401E0A4908600A480068401E0849086015
:1021E00000F0F4FD204600F060F800BF04480068ED
:1021F0000028D7D170BD000014040020200000206A
:102200001C00002070B504460D46206C70B1216C96
:10221000E0680844E0606168E068884201D32068B3
:10222000E0602846226CE168FDF7F4FF70BD2DE9FF
:10223000F04104460F4615464FF00008A66B206C8F
:1022400040B9206860BB606801F0E6FD8046002070
:10225000606025E07DB93946226CA068FDF7DAFFA1
:10226000216CA0680844A060D4E90110884217D30B
:102270002068A06014E03946226CE068FDF7CAFFD0
:10228000216CE068401AE0602168E068884203D26F
:10229000216C6068401AE060022D01D106B1761E03
:1022A000701CA0634046BDE8F08110B50446206B69
:1022B00000F0C4FD204600F0C1FD10BD0146084AF3
:1022C000126812680AB9012200E000220A600A6856
:1022D00022B9034A1268D268106800E000207047F3
:1022E0004C00002030B54FF4A043174800F007041D
:1022F0002CB1C01D20F00700134C041B1B1B024611
:10230000124C22600024114D6C60D018083820F067
:1023100007000F4C206000240D4D2D686C600C4DA3
:102320002D682C601146441A4C60094C24680C60DE
:10233000084D4C682C60084D4C682C604FF00044F0
:10234000064D2C6030BD0000640400206C000020AD
:10235000740000207C000020780000208000002015
:1023600000BFFFF71DFF064800680128F9D94FF0AC
:10237000805004490860BFF34F8FBFF36F8FF0E7C1
:102380005801002004ED00E02DE9F04106460D461D
:1023900017469846069C0DB9246000E02760E66366
:1023A00025640121204601F025FA84F850800020A0
:1023B000A064BDE8F08100002DE9F05F82460F4681
:1023C00090469B460A9E0C9C4FEA8801A522206BF2
:1023D000FDF732FFA8F10100216B01EB800929F024
:1023E000070909F0070008B9012000E0002028B91A
:1023F00040F22B321BA121A0FFF766FB002507E06E
:10240000795D04F134004155785D00B902E06D1C3E
:10241000102DF5D300BF002143200155202E00D3FD
:102420001F26E662E66400202065201D00F061FCA6
:1024300004F1180000F05DFC2461C6F12000A061E9
:1024400064620020606584F858005A465146484648
:1024500000F006FC20600B9808B10B980460BDE802
:10246000F09F00002E2E5C52544F535C536F7572D8
:1024700063655C7461736B732E6300004572726FE9
:10248000723A25732C25640D0A00000010B5002453
:1024900007E004EB84010F4A02EB810000F01CFC12
:1024A000641C202CF5D30C4800F016FC0B4800F0FF
:1024B00013FC0B4800F010FC0A4800F00DFC0A4821
:1024C00000F00AFC0448094908600448084908600B
:1024D00010BD000058010020D8030020EC030020AC
:1024E0000004002014040020280400201400002010
:1024F0001800002010B50146164800E00068036887
:102500008B42FBD30246436813448B4204D1436899
:102510004C682344436001460A464B6813440468F0
:10252000A34211D10C4C03682468A34208D04B6825
:102530000468646823444B6003681B680B6005E013
:10254000054B1B680B6001E003680B60884200D0FC
:10255000016010BD6C000020740000202DE9F041E6
:1025600004460D4616461F464FF00008656024617C
:10257000B5420CD8F01BA169884202D34FF0010884
:1025800011E0211D0948006800F0B6FB0BE0BE42D7
:1025900004D2BD4202D34FF0010804E0211D0448DB
:1025A000006800F0A9FB4046BDE8F0815000002023
:1025B0004C00002070B5054600F0C4FBA86B08B9BC
:1025C000012400E0002400F001FC204670BD70B53D
:1025D000054600F0B7FBA86BE96B884201D10124E6
:1025E00000E0002400F0F2FB204670BD2DE9F3412D
:1025F0000D460098846C00272CB940F6CE121AA123
:102600001FA0FFF761FAA06BE16B884201D20120A5
:1026100000E0002028B940F6CF1213A118A0FFF760
:1026200053FAA06BE16B88421BD294F945602A46AD
:1026300069462046FFF7FBFD0746701C60B9606ADB
:1026400008B9012000E0002050B904F1240001F095
:1026500051FC28B1012703E0701C40B284F845000A
:1026600000BF3846BDE8FC812E2E5C52544F535CAF
:10267000536F757263655C71756575652E630000D7
:102680004572726F723A25732C25640D0A000000A2
:10269000F8B505460F4613480068C068C468201D99
:1026A00000F006FBE069012818D1A06941192B460A
:1026B0003A462046FFF752FF80B1002003462A46E3
:1026C00001460090204601F03DFD06462EB94FF42C
:1026D000027205A10AA0FFF7F7F900BF2046616A60
:1026E0008847F8BD4C0000202E2E5C52544F535C9E
:1026F000536F757263655C74696D6572732E6300E8
:102700004572726F723A25732C25640D0A00000021
:10271000F0B587B070E0039800280CDA04AE2EB94B
:1027200040F2E7223AA140A0FFF7CEF9D6E9002017
:10273000B168904700BF039800285DDB059C606985
:1027400008B9012000E0002010B9201D00F0B0FA07
:1027500002A800F0C7F8054603980A284AD2DFE825
:1027600000F00905072C2E4506082D2F00BF00BFDD
:1027700000BF00BF0498A269811803462A4620467C
:10278000FFF7ECFEC0B12046616A8847E069012886
:1027900012D1002000900498A16942180023194624
:1027A000204601F0CFFC07462FB940F2213218A194
:1027B0001DA0FFF789F900BF1DE000BF1BE000BFAF
:1027C0000498A061A06908B1012000E0002028B9A8
:1027D0004FF44E720EA114A0FFF776F9A0694119CB
:1027E0002B462A462046FFF7B9FE04E0204600F0BB
:1027F00025FB00E000BF00BF00231A4603A90E48D6
:10280000006800F011FF002885D107B0F0BD00007E
:102810002E2E5C52544F535C536F757263655C741B
:10282000696D6572732E63004572726F723A25731B
:102830002C25640D0A00000054000020F8B5054660
:102840000C4600F0EDFD684600F04CF80646009896
:1028500020BB44B9B54206D801F0A8FB3146284652
:10286000FFF716FF1CE03CB10E480068006808B98D
:10287000012000E000200446A91B22460A48006807
:1028800000F0AAFB01F092FB50B94FF080500749CD
:102890000860BFF34F8FBFF36F8F01E001F086FB3D
:1028A000F8BD0000500000205400002004ED00E0BE
:1028B0000A490968096809B9012100E0002121B12C
:1028C0004FF0FF31064A116006E004490968C96803
:1028D000C868034A41681160704700001400002076
:1028E0004000002070B5044601F0DEF905460748B7
:1028F0000068854204D200F00BF80120206001E05E
:102900000020206001480560284670BD5C00002062
:102910002DE9F8432DE021480068C06805681F488C
:102920000068C068C468201D00F0C2F92046616AD2
:102930008847E06901281CD1A0694619AE4207D931
:1029400066602461211D1548006800F0D5F910E08B
:10295000002003462A4601460090204601F0F2FB83
:1029600007462FB940F292320DA113A0FFF7ACF841
:1029700000BF0A480068006808B9012000E0002094
:102980000028C8D00548D0F800800F4800680349E7
:1029900008600D48C0F80080BDE8F8834C000020B6
:1029A0002E2E5C52544F535C536F757263655C748A
:1029B000696D6572732E63004572726F723A25738A
:1029C0002C25640D0A000000500000200B48006810
:1029D000401C08B9012000E0002020B9F42208A121
:1029E00012A0FFF771F800BF502080F31188BFF3E9
:1029F0004F8FBFF36F8F00BF00BFFEE76000002066
:102A00002E2E5C52544F535C536F757263655C702D
:102A10006F727461626C655C525644535C41524DF6
:102A20005F434D335C706F72742E63004572726F3A
:102A3000723A25732C25640D0A00000008B500BF0A
:102A40006846FFF73BFC044620460099FFF7F6FE78
:102A5000FFF75EFEF4E770B5044600F073F994F9F1
:102A600045501AE0A06C38B100212046FFF7BEFDAA
:102A700088B100F09BFB0EE0606A08B9012000E01D
:102A8000002038B904F1240001F034FA18B100F044
:102A90008DFB00E003E0681E45B2002DE2DC00BFC4
:102AA000FF2084F8450000F091F900F04BF994F90B
:102AB000445010E0206908B9012000E0002048B926
:102AC00004F1100001F016FA08B100F06FFB681E67
:102AD00045B200E001E0002DECDC00BFFF2084F8EF
:102AE000440000F073F970BD2DE9F04104464FF049
:102AF000000800F095FC3E48006808B9FFF7F2FBBB
:102B00003C480068204000285FD1A4B1083404F09C
:102B1000070080B104F00700C0F10800044404F08D
:102B2000070008B9012000E0002020B9BF2232A12F
:102B30003CA0FEF7C9FF002C47D03E480068844205
:102B400043D83D4E3046056801E02E462D68686842
:102B5000A04202D228680028F7D1254800688542A3
:102B600033D0306800F10808286830606868001BBE
:102B7000102813D92F1907F0070008B9012000E029
:102B8000002020B9EC221CA126A0FEF79DFF68685A
:102B9000001B78606C603846FFF7ACFC254968681C
:102BA0000968081A2349086008460068234909682B
:102BB000884203D21F480068204908600D496868B0
:102BC0000968084368600020286001F0EFF908F008
:102BD000070008B9012000E0002028B94FF49672E0
:102BE00005A110A0FEF770FF4046BDE8F08100008F
:102BF00074000020800000202E2E5C52544F535C45
:102C0000536F757263655C706F727461626C655C42
:102C10004D656D4D616E675C686561705F342E63F4
:102C2000000000004572726F723A25732C25640D06
:102C30000A000000780000206C0000207C000020CA
:102C40000648006830B10549096801F15000096D76
:102C5000491C016001480068704700001000002016
:102C6000001F4FF080730360001F21F00103036019
:102C7000001F034B036014380260203870470000C7
:102C8000CD29000870B504460D46AAB24FF47A73F8
:102C900021460648FEF70AFC00BF044800680068A9
:102CA000C0F3C0100028F8D0002070BD98000020AC
:102CB00001460A69D1E901309860D1E90103586001
:102CC0005068884201D1886850600020086110680F
:102CD000401E10601068704700F1080141604FF01D
:102CE000FF31816000F10801C160016100210160D4
:102CF000704700210161704710B502460B685C1CEB
:102D00000CB9106907E002F1080000E0406844686F
:102D100024689C42FAD944684C604C68A160886081
:102D200041600A611468641C146010BD42684A6006
:102D300093688B60936859609160086103685B1CBD
:102D40000360704710B500BF502080F31188BFF3B7
:102D50004F8FBFF36F8F00BF0B480068401C0A49BC
:102D600008600846006801280DD108480068C0B214
:102D700008B9012000E0002028B94FF4BD7204A179
:102D80000EA0FEF7A1FE10BD6000002004ED00E0E3
:102D90002E2E5C52544F535C536F757263655C709A
:102DA0006F727461626C655C525644535C41524D63
:102DB0005F434D335C706F72742E63004572726FA7
:102DC000723A25732C25640D0A00000010B50B48DB
:102DD000006828B940F2811209A114A0FEF774FE20
:102DE00006480068401E054908600846006820B98A
:102DF000002080F3118800BF00BF10BD60000020DC
:102E00002E2E5C52544F535C536F757263655C7029
:102E10006F727461626C655C525644535C41524DF2
:102E20005F434D335C706F72742E63004572726F36
:102E3000723A25732C25640D0A00000070B5064611
:102E40003546002E35D0083D2C461A496068096881
:102E5000084008B1012000E0002028B94FF4A0721A
:102E600015A120A0FEF730FE206808B9012000E07F
:102E7000002028B940F241120FA11AA0FEF724FE4B
:102E80000C4960680968084098B1206888B9094908
:102E9000606809688843606000F0C2FA154960689C
:102EA00009680844134908602046FFF723FB01F036
:102EB0007DF870BD800000202E2E5C52544F535C74
:102EC000536F757263655C706F727461626C655C80
:102ED0004D656D4D616E675C686561705F342E6332
:102EE000000000004572726F723A25732C25640D44
:102EF0000A0000007800002003484FF0E0214861FC
:102F000007200861704700003F19010070B5FDF708
:102F10006BF90546102D11D305F1E02090F8F04330
:102F200010480078844201DB012000E0002028B92D
:102F30004FF42A720CA117A0FEF7C6FD19480068CD
:102F400000F4E06018490968884201D8012000E0D7
:102F5000002028B94FF42E7203A10EA0FEF7B4FD95
:102F600070BD0000640000202E2E5C52544F535C54
:102F7000536F757263655C706F727461626C655CCF
:102F8000525644535C41524D5F434D335C706F72F7
:102F9000742E63004572726F723A25732C25640D8E
:102FA0000A0000000CED00E068000020024600204E
:102FB0000BE0084B53F8303033B9064B43F8301070
:102FC00003EBC0035A6002E0401C0828F1D300BFA5
:102FD00070470000180100202DE9F04105460E461B
:102FE00017462C46FFF7AEFE94F94400401C10B97A
:102FF000002084F8440094F94500401C10B90020DA
:1030000084F84500FFF7E2FEA06B28B93A46314646
:1030100004F1240000F0FCF82046FFF71CFDBDE899
:10302000F081000070B504460025ACB10F4800687F
:1030300008B9012000E0002028B940F2CF420CA1DD
:1030400011A0FEF741FD00F0EBF900212046FEF74C
:10305000CDFF00F0ABFF05463DB94FF080500E4963
:103060000860BFF34F8FBFF36F8F70BD4800002023
:103070002E2E5C52544F535C536F757263655C74B3
:1030800061736B732E6300004572726F723A257321
:103090002C25640D0A00000004ED00E070B5054623
:1030A000FFF750FE15B92D48006800E02846044699
:1030B000201DFFF7FDFD78B9E06A00EB800028498C
:1030C00051F8200040B994F82C100120884025497F
:1030D0000968814323480160A06A18B104F118000F
:1030E000FFF7E6FD20480068401C1F4908601B48A8
:1030F0000068844209D1211D1C48FFF717FE1C48B7
:103100000068401C1A49086009E01A480068401E1F
:10311000184908602046FFF7C8F8FFF7C9FBFFF71A
:1031200055FE15480068C0B10C480068844214D1AF
:103130001248006808B9012000E0002028B940F2D8
:1031400065420FA114A0FEF7BFFC4FF08050164956
:103150000860BFF34F8FBFF36F8F70BD100000206A
:1031600058010020280000203C000020140400200A
:103170001C000020200000202C000020480000201F
:103180002E2E5C52544F535C536F757263655C74A2
:1031900061736B732E6300004572726F723A257310
:1031A0002C25640D0A00000004ED00E00120014917
:1031B000086070473400002070B504460D462CB9F5
:1031C00040F6063207A10DA0FEF77EFC0F4801680D
:1031D00018312046FFF790FD01212846FEF706FF33
:1031E00070BD00002E2E5C52544F535C536F7572AD
:1031F00063655C7461736B732E6300004572726F5C
:10320000723A25732C25640D0A000000100000207E
:1032100070B505460E4614462DB940F6313209A167
:103220000EA0FEF751FC1148016818312846FFF73F
:103230007DFD0CB14FF0FF3621463046FEF7D6FE3D
:1032400070BD00002E2E5C52544F535C536F75724C
:1032500063655C7461736B732E6300004572726FFB
:10326000723A25732C25640D0A000000100000201E
:1032700070B505462C46002D4BD02649E06A0968FA
:10328000C96A884245D2A06900F0004028B92148A7
:103290000068C06AC0F12000A061E16A01EB810111
:1032A0001D4A02EB81016069884201D1012000E0E2
:1032B000002050B3201DFFF7FBFC78B9E06A00EB5B
:1032C0008000154951F8200040B994F82C100120D5
:1032D0008840124909688143104801600D48006820
:1032E000C06AE06294F82C10012088400B490968FC
:1032F00008430A490860E16A01EB8101064A02EBD2
:103300008100211DFFF712FD03E002480068C06A3A
:10331000E06270BD1000002058010020280000204D
:1033200010B504462CB940F6C13205A10AA0FEF73B
:10333000CBFB0D48006820600C480068606010BD41
:103340002E2E5C52544F535C536F757263655C74E0
:1033500061736B732E6300004572726F723A25734E
:103360002C25640D0A0000003800002024000020F5
:103370001CB51A4800210B468222CDE9001018A185
:10338000194800F051FC0446012C02D100F0A0FEC7
:103390000446012C15D100BF502080F31188BFF3E3
:1033A0004F8FBFF36F8F00BF4FF0FF300F490860A2
:1033B00001200F49086000200E49086000F08EF8D7
:1033C0000BE0601C08B1012000E0002028B940F2A9
:1033D000847209A10EA0FEF777FB1CBD44000020FB
:1033E00049444C45000000006123000840000020D3
:1033F0002C000020240000202E2E5C52544F535CE1
:10340000536F757263655C7461736B732E63000038
:103410004572726F723A25732C25640D0A00000004
:1034200002480068401C01490860704748000020BD
:1034300010B51B48006818B101201A4908602DE03A
:1034400000201849086018480068B0FA80F0C0F100
:103450001F0404EB8400154951F8200008B1012035
:1034600000E0002028B940F6F62211A116A0FEF7D0
:103470002BFB04EB84010D4A02EB81004168496893
:10348000416000F1080142688A4202D141684968FE
:1034900041604168C968104A116000BF10BD00005A
:1034A000480000203400002028000020580100209F
:1034B0002E2E5C52544F535C536F757263655C746F
:1034C00061736B732E6300004572726F723A2573DD
:1034D0002C25640D0A000000100000201CB52248B5
:1034E000014609780191FF210246117001460978D1
:1034F00000919DF8001001F050011C4A1170072145
:103500001B4A116009E01A490968491E184A1160EE
:103510009DF800104906090E00919DF8001001F079
:1035200080018029EFD0124909680902104A116010
:103530001146098801F4E06111600B4A019911708C
:103540000C48006840F470000A49086008460068AA
:1035500040F070400860FFF7CFFC0020064908608B
:10356000FCF70CFE00201CBD00E400E0640000201D
:103570006800002020ED00E06000002010B500BFD2
:10358000502080F31188BFF34F8FBFF36F8F00BFC0
:1035900000F090FB18B14FF080500449086000BF64
:1035A000002080F3118800BF10BD000004ED00E092
:1035B0002DE9F84305460E4690460DB1012000E086
:1035C000002028B94FF4C4720DA113A0FEF77CFAB5
:1035D0000EB9002701E005FB06F707F15400FFF7DD
:1035E00083FA044644B104F1540943464A4631463D
:1035F00028460094FEF7C8FE2046BDE8F883000088
:103600002E2E5C52544F535C536F757263655C7120
:10361000756575652E6300004572726F723A257389
:103620002C25640D0A0000002DE9FF4782B00546F5
:103630000E461F464FF0000A2C462CB940F2DC42E1
:1036400061A167A0FEF740FA0EB9206C08B901200D
:1036500000E0002028B940F2DD425BA160A0FEF747
:1036600033FA00F011FB08B9049808B9012000E012
:10367000002028B94FF49C6253A159A0FEF724FA08
:1036800000BFFFF75FFBD4F83890B9F1000F3DD0D1
:10369000D4F80C8031462046FEF7B4FDDFB9A9F11D
:1036A0000100A063206810B9FFF7CAFA60602069C2
:1036B00008B9012000E0002010BB04F1100000F068
:1036C00019FCE8B14FF0805049490860BFF34F8FB3
:1036D000BFF36F8F14E0C4F80C80606A08B9012052
:1036E00000E0002060B904F1240000F003FC38B1D0
:1036F0004FF080503E490860BFF34F8FBFF36F8F8C
:10370000FFF764FB012006B0BDE8F087049818B904
:10371000FFF75CFB0020F6E7BAF1000F04D1684622
:10372000FFF7FEFD4FF0010AFFF750FBFFF778FEB1
:10373000FFF708FB94F94400401C10B9002084F8FE
:10374000440094F94500401C10B9002084F845005D
:10375000FFF73CFB04A9684600F014FA40BB204682
:10376000FEF728FFF0B1206830B9FFF7EBFA606888
:10377000FFF77EFDFFF72AFB04F124000499FFF711
:103780001BFD2046FFF767F900F010FC00287FF4CE
:1037900078AF4FF0805016490860BFF34F8FBFF3EA
:1037A0006F8F6EE72046FFF756F900F0FFFB68E7E2
:1037B0002046FFF750F900F0F9FB2046FEF7FAFE2D
:1037C0000028EED000209EE72E2E5C52544F535C12
:1037D000536F757263655C71756575652E63000066
:1037E0004572726F723A25732C25640D0A00000031
:1037F00004ED00E070B505460E462C462CB940F2AB
:103800001B121EA123A0FEF75FF9FFF79BFAD4E974
:103810000F12206801FB020060600020A063206896
:10382000A060E06B401E226C216800FB0210E0608B
:10383000FF2084F8440084F845009EB9206908B947
:10384000012000E00020A8B904F1100000F052FBB4
:1038500080B14FF0805013490860BFF34F8FBFF322
:103860006F8F07E004F11000FFF736FA04F124002F
:10387000FFF732FAFFF7AAFA012070BD2E2E5C5234
:10388000544F535C536F757263655C7175657565F4
:103890002E6300004572726F723A25732C25640DF9
:1038A0000A00000004ED00E02DE9FF4383B0064666
:1038B00088461D464FF0000934462CB940F2D92203
:1038C00060A166A0FEF700F9B8F1000F01D1206CED
:1038D00008B9012000E0002028B940F2DA2259A1FD
:1038E0005EA0FEF7F1F8022D02D1E06B012801D1B4
:1038F000012000E0002028B940F2DB2251A157A0AE
:10390000FEF7E2F800F0C0F908B9059808B90120FF
:1039100000E0002028B940F2DE224AA14FA0FEF7C5
:10392000D3F800BFFFF70EFAA06BE16B884201D31A
:10393000022D38D12A4641462046FEF778FC07463C
:10394000A06C68B129462046FEF750FE28B34FF020
:10395000805046490860BFF34F8FBFF36F8F1CE064
:10396000606A08B9012000E0002068B904F1240071
:1039700000F0C0FA88B14FF080503C490860BFF3B6
:103980004F8FBFF36F8F08E03FB14FF08050374942
:103990000860BFF34F8FBFF36F8FFFF717FA012057
:1039A00007B0BDE8F083059818B9FFF70FFA0020BB
:1039B000F6E7B9F1000F04D101A8FFF7B1FC4FF011
:1039C0000109FFF703FAFFF72BFDFFF7BBF994F9A5
:1039D0004400401C10B9002084F8440094F94500CC
:1039E000401C10B9002084F84500FFF7EFF905A945
:1039F00001A800F0C7F8F0B92046FEF7E8FDA0B135
:103A000004F110000599FFF7D7FB2046FFF723F8D4
:103A100000F0CCFA002885D14FF08050134908609F
:103A2000BFF34F8FBFF36F8F7CE72046FFF713F88C
:103A300000F0BCFA76E72046FFF70DF800F0B6FA82
:103A40000020ADE72E2E5C52544F535C536F7572BD
:103A500063655C71756575652E6300004572726FF4
:103A6000723A25732C25640D0A00000004ED00E075
:103A70002DE9F05F80468A4615461E4644462CB91D
:103A800040F29F3235A13BA0FEF71EF8BAF1000FBD
:103A900001D1206C08B9012000E0002028B94FF4C2
:103AA00068722EA133A0FEF70FF8022E02D1E06B50
:103AB000012801D1012000E0002028B940F2A13204
:103AC00026A12CA0FEF700F8FFF720FA00BF502136
:103AD000EFF3118081F31188BFF34F8FBFF36F8F26
:103AE00000BF0746A06BE16B884201D3022E2BD1A9
:103AF00094F945B0324651462046FEF798FB0BF14B
:103B00000100C8B9A06C40B131462046FEF76EFDF9
:103B1000B8B1B5B10120286013E0606A08B901208E
:103B200000E0002068B904F1240000F0E3F940B19E
:103B30003DB10120286004E00BF1010040B284F89F
:103B400045004FF0010901E04FF0000900BF87F385
:103B5000118800BF4846BDE8F09F00002E2E5C5241
:103B6000544F535C536F757263655C717565756511
:103B70002E6300004572726F723A25732C25640D16
:103B80000A0000002DE9F04104460D462CB940F62C
:103B9000CB3219A11EA0FDF797FF2DB940F6CC320C
:103BA00015A11BA0FDF790FFFFF7CCF81C48076894
:103BB0002868401C08B9002619E01A4920680968DD
:103BC000884204D06068B84201D801260FE06068DE
:103BD000381A2968884209D228686168791A401A17
:103BE00028602046FFF79CFB002600E00126FFF737
:103BF000EDF83046BDE8F0812E2E5C52544F535CF8
:103C0000536F757263655C7461736B732E63000030
:103C10004572726F723A25732C25640D0A000000FC
:103C200024000020380000202DE9FF4F85B0804699
:103C300089461746DDE912ABB800FEF755FF064688
:103C400056B15C20FEF750FF04460CB1266304E039
:103C50003046FFF7F3F800E000247CB10020CDE906
:103C600000ABCDE902403A4649464046089BFEF784
:103C7000A3FB2046FEF706FA012501E04FF0FF35D1
:103C8000284609B0BDE8F08F0549096809B9012047
:103C900005E00449096809B9022000E000207047E6
:103CA0002C000020480000200149086870470000EF
:103CB000240000202DE9F0414FF000084148006841
:103CC000002872D140480068451C3F480560EDB9A6
:103CD0003E480068006808B9012000E0002028B9CB
:103CE00040F6D9123AA140A0FDF7EEFE374807682A
:103CF00041480068354908603F4807603F48006810
:103D0000401C3E490860FEF7D3FD00BF3C480068F8
:103D100085423CD300BF2D480068006808B90120E7
:103D200000E0002020B14FF0FF30354908602DE061
:103D300026480068C068C4686668B54202D2304848
:103D4000066023E0201DFEF7B3FFA06A18B104F15E
:103D50001800FEF7ADFF94F82C1001208840294987
:103D60000968084327490860E16A01EB8101264A96
:103D700002EB8100211DFEF7D9FF2449E06A0968A2
:103D8000C96A8842C7D34FF00108C4E700BF1F4883
:103D90000068C06A00EB80001B4951F82000012830
:103DA00001D94FF0010805E0FFE719480068401C01
:103DB000174908601748006808B14FF001084046ED
:103DC000BDE8F081480000202400002014000020FD
:103DD0002E2E5C52544F535C536F757263655C7446
:103DE00061736B732E6300004572726F723A2573B4
:103DF0002C25640D0A000000180000203800002067
:103E00004000002028000020580100201000002061
:103E1000300000203400002070B505462C460026F6
:103E2000002D4BD026480068844201D1012000E0DB
:103E3000002028B940F6C76222A128A0FDF744FE61
:103E4000206D28B940F6C9621EA124A0FDF73CFEF2
:103E5000206D401E2065E16CE06A88422ED0206D06
:103E600060BB201DFEF724FF78B9E06A00EB8000FC
:103E70001E4951F8200040B994F82C1001208840C8
:103E80001B49096881431A480160E06CE062E06AFE
:103E9000C0F12000A06194F82C1001208840144942
:103EA0000968084312490860E16A01EB81010F4A81
:103EB00002EB8100211DFEF739FF0126304670BD5F
:103EC000100000202E2E5C52544F535C536F7572BD
:103ED00063655C7461736B732E6300004572726F6F
:103EE000723A25732C25640D0A0000005801002049
:103EF0002800002070B50646F068C4682CB940F66A
:103F000061321AA11FA0FDF7DFFD04F11800FEF7D2
:103F1000CFFE20480068A8B9201DFEF7C9FE94F81E
:103F20002C10012088401C49096808431A49086080
:103F3000E16A01EB8101194A02EB8100211DFEF7C4
:103F4000F5FE04E004F118011548FEF7EFFE1549EF
:103F5000E06A0968C96A884204D90125012012492A
:103F6000086000E00025284670BD00002E2E5C523F
:103F7000544F535C536F757263655C7461736B73FC
:103F80002E6300004572726F723A25732C25640D02
:103F90000A000000480000202800002058010020EE
:103FA00000040020100000203400002070B5002420
:103FB00000263448006828B94FF4FD6232A138A0C9
:103FC000FDF782FDFEF7BEFE2E480068401E2D491B
:103FD00008600846006800284FD13548006800286E
:103FE0004BD024E03348C068C46804F11800FEF7E1
:103FF0005FFE201DFEF75CFE94F82C100120884027
:104000002D49096808432C490860E16A01EB8101E8
:104010002A4A02EB8100211DFEF788FE2849E06A4A
:104020000968C96A884202D30120264908602148EC
:10403000006808B9012000E000200028D2D00CB1AF
:10404000FEF736FC2048056865B100BFFFF732FE79
:1040500010B101201B4908606D1E002DF6D1002013
:10406000194908601748006838B101263007174918
:104070000860BFF34F8FBFF36F8FFEF7A7FE304688
:1040800070BD0000480000202E2E5C52544F535C3F
:10409000536F757263655C7461736B732E6300009C
:1040A0004572726F723A25732C25640D0A00000068
:1040B00020000020000400202800002058010020DB
:1040C00010000020340000203000002004ED00E04B
:1040D0001CB50024FEF732F80B48006858B10B48B5
:1040E0001F2100234FF48272CDE9001008A10A4875
:1040F000FFF79AFD04462CB940F2331207A10DA038
:10410000FDF7E2FC20461CBD5400002058000020B2
:10411000546D7220537663003D2A00082E2E5C52A7
:10412000544F535C536F757263655C74696D65724F
:10413000732E63004572726F723A25732C25640DDD
:104140000A0000002DE9FF4704460D4616461F46AB
:10415000DDF830804FF000092CB94FF4D37217A16D
:104160001CA0FDF7B1FC1F48006810B30095019634
:104170000294062D15DAFFF787FD022808D10023E7
:104180004246694617480068FFF78EFB814610E0FB
:1041900000231A46694613480068FFF785FB8146ED
:1041A00007E000233A4669460E480068FFF760FCC6
:1041B0008146484604B0BDE8F08700002E2E5C52D0
:1041C000544F535C536F757263655C74696D6572AF
:1041D000732E63004572726F723A25732C25640D3D
:1041E0000A00000054000020000000000000000051
:1041F000010203040607080900000000010203048D
:10420000204200080000002098000000201B000849
:10421000B842000898000020D0570000301B00086A
:10422000000000000000000000000000000000008E
:10423000000000000000000000000000000000007E
:10424000000000000000000000000000000000006E
:10425000000000000000000000000000000000005E
:10426000000000000000000000000000000000004E
:10427000000000000000000000000000000000003E
:10428000AAAAAAAA00000000000000000000000086
:10429000000000000000000000000000000000001E
:1042A00000000000000000001000000001000000FD
:0842B0000024F40000000000EE
:0400000508000131BD
:00000001FF
