:020000040800F2
:1000000068590020ED01000839140008E1010008DA
:10001000351400081F0300087118000800000000D4
:10002000000000000000000000000000490100087E
:1000300023030008000000008D010008651400087B
:10004000070200080702000807020008070200086C
:10005000070200080702000807020008070200085C
:10006000070200080702000807020008070200084C
:10007000070200080702000807020008070200083C
:10008000070200080702000807020008070200082C
:10009000070200080702000807020008070200081C
:1000A000070200080702000807020008070200080C
:1000B00007020008070200080702000807020008FC
:1000C00007020008070200080702000807020008EC
:1000D000070200083D180008070200080702000890
:1000E00007020008070200080702000807020008CC
:1000F00007020008070200080702000807020008BC
:1001000007020008070200080702000807020008AB
:10011000070200080702000807020008070200089B
:10012000070200080702000807020008070200088B
:10013000DFF810D000F0D2F8004800477926000818
:10014000AFF3008068590020224B19680868B0E8B6
:10015000F00F80F30988BFF36F8F4FF0000080F33A
:1001600011884EF00D0E7047000000000648006830
:10017000006880F3088862B661B6BFF34F8FBFF3A3
:100180006F8F00DF00BF00BF08ED00E0EFF30980D4
:10019000BFF36F8F0F4B1A6820E9F00F106008B59E
:1001A0004FF0500080F31188BFF34F8FBFF36F8F74
:1001B00003F034FD4FF0000080F31188BDE80840E3
:1001C00019680868B0E8F00F80F30988BFF36F8FF3
:1001D000704700BF18000020EFF305807047000053
:1001E0007046694601F0D2FEFFF7FEFF06488047E1
:1001F00006480047FEE7FEE7FEE7FEE7FEE7FEE70C
:10020000FEE7FEE7FEE7FEE775140008310100088F
:10021000202A04DB203A21FA02F00021704721FA5B
:1002200002F3D040C2F120029140084319467047C2
:1002300040EA01039B0703D009E008C9121F08C068
:10024000042AFAD203E011F8013B00F8013B521EE8
:10025000F9D27047D2B201E000F8012B491EFBD25F
:1002600070470022F6E710B513460A4604461946C1
:10027000FFF7F0FF204610BD2DE9F05F0546002096
:1002800092469B4688460646814640241BE0284607
:10029000414647462246FFF7BBFF53465A46C01A1F
:1002A000914110D311461846224600F029F82D1A24
:1002B00067EB01084F4622460120002100F020F89C
:1002C00017EB00094E41201EA4F10104DFDC484673
:1002D00031462A464346BDE8F09F0000064C074DD4
:1002E00006E0E06840F0010394E807009847103406
:1002F000AC42F6D3FFF720FFEC5000080C51000889
:10030000202A04DB203A00FA02F1002070479140D5
:10031000C2F1200320FA03F319439040704700BF55
:10032000FEE7704770B50446002594F821000228C6
:1003300003D00420A0630125C1E02068006820F0FC
:100340000E00216808602068006820F00100216824
:1003500008605C492068884252D95A497839206837
:10036000884201D1012047E056496439206888421B
:1003700001D1102040E0534950392068884201D112
:10038000801539E04F493C392068884201D18014FA
:1003900032E04C4928392068884202D14FF480303D
:1003A0002AE0484914392068884202D14FF480106D
:1003B00022E044492068884201D140041CE04249BF
:1003C0002068884201D1012016E03F49143120689D
:1003D000884201D110200FE03B4928312068884233
:1003E00001D1801508E038493C312068884201D1AC
:1003F000801401E04FF480303349091F086051E058
:10040000304978392068884201D1012047E02D49E0
:1004100064392068884201D1102040E029495039D0
:100420002068884201D1801539E026493C3920688E
:10043000884201D1801432E022492839206888425C
:1004400002D14FF480302AE01E49143920688842D6
:1004500002D14FF4801022E01A492068884201D16D
:1004600040041CE018492068884201D1012016E0B0
:10047000154914312068884201D110200FE012493B
:1004800028312068884201D1801508E00E493C31AE
:100490002068884201D1801401E04FF4803009497E
:1004A00080394860012084F8210000BF002084F8D2
:1004B000200000BF606B10B12046616B8847284662
:1004C00070BD000080000240080402402DE9F8479A
:1004D000024600239C467BE14FF0010808FA03F432
:1004E000D1F8008008EA0400A0427DD1DFF8F4A230
:1004F000D1F80480A8EB0A09D0453AD014DCB8F151
:10050000030F50D009DCB8F1000F31D0B8F1010F62
:100510001CD0B8F1020F49D120E0B8F1110F18D06A
:10052000B8F1120F42D11EE0B9F5881F25D006DCC4
:10053000B9F5803F20D0B9F5801F37D11AE0B9F561
:10054000001F18D0B9F5041F30D117E0D1F80CC046
:100550002DE0D1F80C8008F1040C28E0D1F80C80D3
:1005600008F1080C23E0D1F80C8008F10C0C1EE017
:1005700000BF00BF00BF00BF00BF00BFD1F80880B0
:10058000B8F1000F02D14FF0040C0BE0D1F8088055
:10059000B8F1010F03D14FF0080C146102E04FF0E5
:1005A000080C546103E04FF0000C00E000BF00BFF6
:1005B000FF2801D8904601E002F104084646FF28D2
:1005C00002D84FEA830803E0A3F108084FEA88083D
:1005D0004746D6F800804FF00F0909FA07F928EAD4
:1005E00009080CFA07F900E07AE048EA0908C6F8B9
:1005F0000080D1F8048008F08058B8F1805F6FD196
:1006000000BFDFF8E481D8F8188048F00108DFF86F
:10061000D891C9F81880C846D8F8188008F00108A1
:10062000CDF8008000BF00BF4FEAB9384FEA930908
:1006300058F829504FEA83784FEA18794FF00F089D
:1006400008FA09F825EA0805DFF8A081424502D139
:100650004FF0000824E0DFF89881424502D14FF0C6
:1006600001081DE0DFF88C81424502D14FF00208FD
:1006700016E0DFF88481424502D14FF003080FE015
:10068000DFF87881424502D14FF0040808E0DFF836
:100690007081424502D14FF0050801E04FF0060895
:1006A0004FEA83794FEA197908FA09F848EA05050B
:1006B000DFF850814FEA930948F82950D1F80480B7
:1006C00008F48038B8F5803F0BD1DFF83C81D8F8CA
:1006D000008048EA0008DFF83091C9F800800AE09D
:1006E00075E0DFF82481D8F8008028EA0008DFF8F8
:1006F0001891C9F80080D1F8048008F40038B8F5E2
:10070000003F0ED1DFF8008108F10408D8F800801E
:1007100048EA0008DFF8F09009F10409C9F8008000
:100720000DE0DFF8E48008F10408D8F8008028EA3A
:100730000008DFF8D49009F10409C9F80080D1F865
:10074000048008F48018B8F5801F0ED1DFF8B88057
:1007500008F10808D8F8008048EA0008DFF8A890F7
:1007600009F10809C9F800800DE0DFF89C8008F164
:100770000808D8F8008028EA0008DFF88C9009F112
:100780000809C9F80080D1F8048008F40018B8F509
:10079000001F0ED1DFF8708008F10C08D8F8008037
:1007A00048EA0008DFF8609009F10C09C9F80080F8
:1007B0000DE0DFF8548008F10C08D8F8008028EA32
:1007C0000008DFF8449009F10C09C9F800805B1CAF
:1007D000D1F8008028FA03F8B8F1000F7FF47CAE5E
:1007E000BDE8F88700001110001002400008014029
:1007F000000C0140001001400014014000180140AD
:10080000001C014008000140000401400AB10161E0
:1008100001E00B0403617047014800687047000065
:100820000C00002010B590B000241C48006840F077
:1008300010001A490860052000F0A8F80F2000F009
:100840002FF800F053F801200690000407900020D4
:10085000089002200D90C1030E914FF4E0110F910A
:1008600006A800F0DDF904460CB100BFFEE70F203A
:10087000019002200290002003904FF480600490C9
:1008800000200590022101A800F094F804460CB164
:1008900000BFFEE7002010B010BD000000200240A5
:1008A00070B504460E4800784FF47A71B1FBF0F051
:1008B0000C490968B1FBF0F5284600F0E3FB08B1EC
:1008C000012070BD102C07D200222146501E00F0DE
:1008D0001EF80548046001E00120F2E70020F0E77F
:1008E00014000020A00000201000002070470146E6
:1008F0000846002809DB00F01F0301229A40430943
:100900009B0003F1E023C3F8002100BF70472DE9ED
:10091000F05F80460D461646002700F0CFFF0746E1
:1009200039462A46334601F00700C0F1070ABAF1FA
:10093000040F02D94FF0040A01E0C0F1070AD146C2
:1009400000F1040ABAF1070F02D24FF0000A01E0E9
:10095000A0F1030AD4464FF0010A0AFA09FAAAF1F3
:10096000010A0AEA020A0AFA0CFA4FF0010B0BFA22
:100970000CFBABF1010B0BEA030B4AEA0B0421461B
:10098000404600F0A3FFBDE8F09F000000BF00F06C
:100990000702064B19684FF6FF031940044B0B433F
:1009A00043EA0221014B196000BF70470CED00E0E3
:1009B0000000FA0570B504460D460CB9012070BD63
:1009C0005A48006800F00700A8420ED25748006855
:1009D00020F007002843554908600846006800F0E9
:1009E0000700A84201D00120E9E7207800F00200CA
:1009F00002281DD1207800F00400042805D14C48BD
:100A0000406840F4E0604A494860207800F00800FF
:100A1000082805D14648406840F460504449486081
:100A20004348406820F0F000A1680843404948600E
:100A3000207800F0010078B36068012806D13C48B6
:100A4000006800F4003090B90120B8E7606802281F
:100A500006D13748006800F0007040B90120AEE7C9
:100A60003348006800F0020008B90120A7E73048C9
:100A7000406820F00300616808432D494860FFF793
:100A8000CBFE064609E0FFF7C7FE801B41F2883126
:100A9000884202D9032092E707E02548406800F029
:100AA0000C006168B0EB810FEDD12048006800F0C8
:100AB0000700A8420ED91D48006820F0070028430F
:100AC0001A4908600846006800F00700A84201D0F3
:100AD000012074E7207800F00400042807D11448AE
:100AE000406820F4E060E1680843114948602078DC
:100AF00000F00800082808D10D48406820F4605034
:100B0000216940EAC1000A49486000F03FF80849FD
:100B10004968C1F30311074A515CC840064908609F
:100B200006480068FFF7BCFE002048E700200240AE
:100B300000100240B44A0008A0000020100000206D
:100B40000148006870470000A000002000B5FFF7D2
:100B5000F7FF04494968C1F30221034A515CC840C8
:100B600000BD000000100240C44A000800B5FFF7B5
:100B7000E7FF04494968C1F3C221034A515CC840F8
:100B800000BD000000100240C44A0008F0B585B066
:100B90000FF26C0C9CE8E01001A8A0E8E0101CA586
:100BA0002D68009500210022002300240020194D0B
:100BB000696801F00C05F5B1042D02D0082D19D19A
:100BC00001E0154819E001ADC1F38346AC5D01F4C5
:100BD000803555B10F4D6D68C5F340451DF80520B2
:100BE0000D4D6543B5FBF2F302E00C4D04FB05F33C
:100BF000184602E000BF084800BF00BF05B0F0BDC6
:100C000002030405060708090A0B0C0D0E0F10104D
:100C1000010200000010024000127A0000093D00AD
:100C2000F8B504460CB90120F8BD207800F00100A9
:100C3000002878D0F848406800F00C0004280CD058
:100C4000F548406800F00C00082811D1F2484068CF
:100C500000F48030B0F5803F0AD1EF48006800F41E
:100C6000003000285FD0606800285CD10120DBE7FD
:100C700000BF6068B0F5803F06D1E748006840F4E7
:100C80008030E549086028E0606858B9E2480068AB
:100C900020F48030E04908600846006820F4802095
:100CA00008601AE06068B0F5A02F0BD1DA48006840
:100CB00040F48020D84908600846006840F480303D
:100CC00008600AE0D448006820F48030D249086007
:100CD0000846006820F48020086000BF606888B182
:100CE000FFF79AFD054606E0FFF796FD401B6428D6
:100CF00001D9032098E7C848006800F400300028B4
:100D0000F2D010E0FFF788FD054606E0FFF784FD0E
:100D1000401B642801D9032086E7BF48006800F41F
:100D200000300028F2D1207800F00200022857D1CC
:100D3000B948406800F00C0050B1B748406800F076
:100D40000C00082818D1B448406800F4803098B9E5
:100D5000B148006800F0020020B12069012801D0EC
:100D6000012061E7AC48006820F0F800616940EAC2
:100D7000C100A949086033E02069E8B10120A74912
:100D80000860FFF749FD054606E0FFF745FD401BFB
:100D9000022801D9032047E79F48006800F00200BD
:100DA0000028F2D09C48006820F0F800616940EA11
:100DB000C1009949086013E0002098490860FFF7D6
:100DC0002BFD054606E0FFF727FD401B022801D951
:100DD000032029E79048006800F002000028F2D1C3
:100DE000207800F0080008282DD1A069B8B10120B2
:100DF0008B490860FFF710FD054606E0FFF70CFD84
:100E0000401B022801D903200EE78348406A00F006
:100E100002000028F2D0012000F010FB13E00020B7
:100E20007F490860FFF7F8FC054606E0FFF7F4FC91
:100E3000401B022801D90320F6E67748406A00F0FB
:100E400002000028F2D1207800F00400042873D1B9
:100E500000277148C06900F0805070B900BF6E482B
:100E6000C06940F080506C49C8610846C06900F014
:100E70008050009000BF00BF01276A48006800F45E
:100E80008070B0B96748006840F4807065490860B8
:100E9000FFF7C2FC054606E0FFF7BEFC401B6428D6
:100EA00001D90320C0E65F48006800F48070002884
:100EB000F2D000BFE068012806D15748006A40F030
:100EC00001005549086227E0E06858B95248006AB5
:100ED00020F00100504908620846006A20F0040032
:100EE000086219E0E06805280BD14B48006A40F021
:100EF0000400494908620846006A40F0010008629F
:100F00000AE04548006A20F00100434908620846AB
:100F1000006A20F00400086200BFE068A0B1FFF79B
:100F20007BFC054609E0FFF777FC401B41F2883166
:100F3000884202D9032077E622E03748006A00F0B1
:100F400002000028EFD012E0FFF766FC054608E03B
:100F5000FFF762FC401B41F28831884201D903202F
:100F600062E62D48006A00F002000028F0D1012F4F
:100F700005D12948C06920F080502749C86100BFC9
:100F8000E069C8B32448406800F00C00082860D02D
:100F9000E069022848D1002020490866FFF73CFCA0
:100FA000054606E0FFF738FC401B022801D9032064
:100FB0003AE61948006800F000700028F2D1206A73
:100FC000B0F5803F07D11448406820F40030A16894
:100FD000084311494860D4E9080108430E494968AB
:100FE00021F4741108430C49486001200B4908663C
:100FF000FFF712FC054607E03DE0FFF70DFC401B44
:10100000022801D903200FE60348006800F00070B1
:101010000028F2D02FE00000001002400000424201
:101020008004424200700040002014490866FFF727
:10103000F3FB054606E0FFF7EFFB401B022801D952
:101040000320F1E50E48006800F000700028F2D19E
:1010500011E0E069012800D1E6E50948466806F498
:101060008031206A814204D106F47011606A8142A5
:1010700001D00120D8E50020D6E500000000424262
:101080000010024070B504462546681EB0F1807F0E
:1010900001D301200FE0681E4FF0E02148610F21CD
:1010A0004FF0FF3000F012FC00204FF0E02188618B
:1010B00007200861002070BD704700002DE9F0474F
:1010C0000446206805682068C668206847694FF0B4
:1010D0000008C14605F00F08B8F1000F0AD105F06D
:1010E000200038B106F0200020B1204600F018FAA8
:1010F000BDE8F087B8F1000F6DD007F0010018B916
:1011000006F49070002866D005F0010030B106F4B6
:10111000807018B1E06B40F00100E06305F004005E
:1011200030B107F0010018B1E06B40F00200E0635D
:1011300005F0020030B107F0010018B1E06B40F09B
:101140000400E06305F0080030B107F0010018B1B9
:10115000E06B40F00800E063E06B68B305F020004E
:1011600028B106F0200010B1204600F0D9F920681F
:101170004069C0F38019E06B00F0080010B9B9F1C4
:10118000000F22D0204600F0ABF92068406900F043
:101190004000B0B12068406920F0400021684861FB
:1011A000606B50B11748616B4863606BFFF7BAF82A
:1011B00010B1606B416B88470CE02046FFF77CFF65
:1011C00008E02046FFF778FF04E02046FFF774FFB1
:1011D0000020E0638CE705F0800030B106F080006D
:1011E00018B1204600F0C0FA82E705F0400030B1A7
:1011F00006F0400018B1204600F082F978E700BF01
:1012000076E70000CD14000810B504460CB90120A3
:1012100010BDA06900B100E000BF94F8390028B902
:10122000002084F83800204600F027F8242084F8B5
:1012300039002068C06820F400502168C86020464A
:1012400000F0C2F92068006920F49040216808612C
:101250002068406920F02A00216848612068C06841
:1012600040F400502168C8600020E063202084F82A
:10127000390084F83A000020CAE770472DE9F843A6
:1012800004460D4616461F464FF0000994F83A00F2
:10129000202860D105B116B90120BDE8F88300BF50
:1012A00094F83800012801D10220F6E7012084F8E3
:1012B000380000BF0020E063222084F83A00FFF7E6
:1012C000ABFA8146A685E68539E0E08D401EE085D3
:1012D000A068B0F5805F1BD14B460022202120463C
:1012E000009700F075FA08B10320D6E7A8462069F8
:1012F00038B920684068C0F30800A8F80000AD1CA9
:101300001DE020684068C0B2A8F800006D1C16E01F
:101310004B46002220212046009700F059FA08B1E0
:101320000320BAE7206920B92068406805F8010B5E
:1013300005E02068406800F07F0005F8010BE08DB3
:101340000028C2D1202084F83A0000BF002084F891
:10135000380000BFA1E702209FE770472DE9F8435E
:1013600004460D4616461F464FF0000994F8390012
:1013700020285CD105B116B90120BDE8F88300BF73
:1013800094F83800012801D10220F6E7012084F802
:10139000380000BF0020E063212084F83900FFF707
:1013A0003BFA8146A684E6842BE0E08C401EE08474
:1013B000A068B0F5805F16D14B4600228021204600
:1013C000009700F005FA08B10320D6E7A846B8F860
:1013D0000000C0F3080021684860206908B9AD1C0E
:1013E0000FE06D1C0DE04B46002280212046009747
:1013F00000F0EEF908B10320BFE715F8010B2168F2
:101400004860E08C0028D0D14B4600224021204685
:10141000009700F0DDF908B10320AEE7202084F842
:10142000390000BF002084F8380000BFA5E7022083
:10143000A3E7704700BFFEE77047000008B5084902
:101440000968C9084FF47A72B1FBF2F14143009187
:1014500000BF00BF00994A1E00920029F9D108BDC3
:10146000A000002010B503F005F8012801D002F01B
:101470007BFC10BD1148006840F001000F49086076
:10148000084640680E4908400C4948600846006814
:101490000C490840094908600846006820F480208B
:1014A00008600846406820F4FE0048604FF41F00C2
:1014B0008860C803044908607047000000100240BB
:1014C0000000FFF8FFFFF6FE08ED00E070B50546EE
:1014D0006C6A0020E085E0842046FFF7EDFD70BDDA
:1014E0000168C96821F490710268D1600168496996
:1014F00021F0010102685161202180F83A10704703
:1015000010B504462068C06820F040002168C8601B
:10151000202084F839002046FFF78BFF002010BD03
:1015200070B5044694F83A0022284AD1A068B0F574
:10153000805F13D1A56A206940B920684068C0F374
:1015400008002880A06A801CA06219E0206840681A
:10155000C0B22880A06A401CA06211E0206938B99E
:1015600020684068C1B2A26A501CA062117007E0F6
:101570002068406800F07F01A26A501CA0621170D0
:10158000E08D401E80B2E085C8B92068C06820F0B8
:1015900020002168C8602068C06820F4807021683D
:1015A000C8602068406920F001002168486120205F
:1015B00084F83A002046FFF7D0FE002070BD0020DE
:1015C000FCE70220FAE7000070B5044621680969CB
:1015D00021F44051E2681143226811612269A16837
:1015E0001143626941EA02052168C96841F20C624F
:1015F000914329432268D1602168496921F44071EF
:10160000A269114322685161564A2168914254D11E
:10161000FFF7ACFA00EBC00101EB00116268920029
:10162000B1FBF2F100EBC00202EB001263689B0019
:10163000B2FBF3F26423B2FBF3F202EBC20303EB5F
:101640000212A1EB8201322202EB01116422B1FBF2
:10165000F2F101F0F00100EBC00202EB001263684E
:101660009B00B2FBF3F26423B2FBF3F201EB021234
:1016700000EBC00101EB001163689B00B1FBF3F1CB
:1016800000EBC00303EB00136668B600B3FBF6F390
:101690006426B3FBF6F303EBC30606EB0313A1EBDF
:1016A0008301322303EB01116423B1FBF3F101F059
:1016B0000F0111442268916053E0FFF747FA00EBF5
:1016C000C00101EB001162689200B1FBF2F100EB86
:1016D000C00202EB001263689B00B2FBF3F26423CA
:1016E000B2FBF3F202EBC20303EB0212A1EB8201A5
:1016F000322202EB01116422B1FBF2F101F0F001A0
:1017000000EBC00202EB001263689B00B2FBF3F235
:101710006423B2FBF3F201EB021200EBC00101EB18
:10172000001163689B00B1FBF3F100EBC00303EB16
:1017300000136668B600B3FBF6F36426B3FBF6F35A
:1017400003EBC30606EB0313A1EB8301322303EB88
:1017500001116423B1FBF3F101F00F011144226880
:10176000916070BD00380140014691F83900212890
:101770002CD18868B0F5805F0FD10A6A1088C0F359
:1017800008000B685860086918B9086A801C08626C
:1017900009E0086A401C086205E00B6A581C0862F0
:1017A00018780B685860C88C401E80B2C88458B93D
:1017B0000868C06820F080000B68D8600868C068BE
:1017C00040F040000B68D860002070470220FCE722
:1017D0002DE9F04104460D4617469846069E21E045
:1017E000701CF8B12EB1FFF717F8A0EB0800B0425B
:1017F00018D92068C06820F4D0702168C8602068BB
:10180000406920F0010021684861202084F83900F7
:1018100084F83A0000BF002084F8380000BF03209D
:10182000BDE8F081206800682840A84201D101206D
:1018300000E00020B842D3D00020F1E708B50B4803
:1018400000680068C0F3401030B14FF47A73012291
:1018500069460648FFF712FD6FF02000034909684A
:1018600008600248FFF72AFC08BD0000A80000201D
:1018700000BFFEE70FB4054B10B503A9044A029858
:1018800000F048F810BC5DF814FB0000F1250008DA
:10189000A40000200FB4084B10B504A902AA0398B5
:1018A00000F038F8044602A9002000F05EFA204655
:1018B00010BC5DF814FB00006B1D000802480068B6
:1018C000C0F30220704700000CED00E010B50028C6
:1018D00004DB0A07130E054A135406E00A07140E28
:1018E000034A00F00F031B1FD45410BD00E400E0B6
:1018F00018ED00E002E008C8121F08C1002AFAD162
:1019000070477047002001E001C1121F002AFBD17F
:10191000704700002DE9FF4F8DB00F4605460026A9
:1019200006E025280BD0DDE90F1290476D1C761CD0
:1019300028780028F5D111B03046BDE8F08F00249A
:10194000A246A1460122E94900E0044315F8013FFF
:10195000203B02FA03F00842F7D128782A2810D059
:101960006FF02F022878A0F13001092914D80AEB72
:101970008A0102EB410144F0020400EB010A6D1CF4
:10198000F0E701CF5FEA000A03D544F40054CAF13E
:10199000000A44F002046D1C28782E2817D115F88F
:1019A000010F44F004042A280ED06FF02F0228788B
:1019B000A0F1300109290AD809EB890102EB4101A4
:1019C00000EB01096D1CF2E757F8049B6D1C2878A9
:1019D0006C280FD006DC4C2817D068280DD06A2858
:1019E00014D104E0742810D07A280FD10DE044F40B
:1019F00000140AE044F4801401E044F440146978CF
:101A0000814202D104F580146D1C6D1C28786E286B
:101A10001ED00CDC632830D004DC00288BD0582882
:101A200011D19FE0642867D069280CD164E0732845
:101A30002DD004DC6F2872D0702804D194E0752872
:101A40006ED078286DD0DDE90F129047761C4BE1FF
:101A5000C4F30250022806D0032809D0042801CF7D
:101A600009D0066040E101CFF117C0E900613BE118
:101A700001CF068038E1067036E117F8040B8DF8C7
:101A8000000000208DF80100EB46012003E057F82C
:101A900004BB4FF0FF3061074FF0000102D40DE0AE
:101AA00008F10101884649450FDA8045F8DB1BF84B
:101AB00008100029F4D108E008F1010188468142AC
:101AC000FADB1BF808100029F6D1DDE90F23AAEB99
:101AD00008008146214600F031F9304400EB080649
:101AE00004E0DDE90F121BF8010B9047B8F1010883
:101AF000F7D221464846F2E00A21C4F302524FF0E1
:101B0000000B0891022A04D001CFC117032A09D083
:101B10000AE0FF1D27F00707F7E8020108E02CE0C4
:101B20001EE01FE000B2C117042A01D140B2C11764
:101B3000021E71F1000206DA0023D0EB030063EB12
:101B400001012D2202E0220504D52B228DF824204C
:101B5000012203E0E20701D02022F7E7904653E09C
:101B60000A210BE0102109E010214FF0000B44F096
:101B700004044FF00809089103E008214FF0000B1E
:101B80000891C4F30252022A04D001CF0021032A93
:101B900006D006E0FF1D27F00707F7E8020103E083
:101BA00080B2042A00D1C0B24FF0000822072BD522
:101BB0002A78702A07D0DDF820C08CF0100C5CEA7F
:101BC0000B0C05D00EE040228DF82420012208E005
:101BD00050EA010306D030238DF824308DF82520FB
:101BE00002229046089B83F0080353EA0B030BD1B3
:101BF00050EA010201D1620706D530228DF8242077
:101C00004FF00108A9F101092A78582A04D038A216
:101C10000B9208AA0A920BE03AA2F9E75B46089AEF
:101C2000FEF72AFB0B9B9B5C0A9A521E0A921370CA
:101C300050EA0102F2D10A98ADEB000000F1200B4E
:101C4000600702D524F4803401E04FF00109D94542
:101C500002DDA9EB0B0000E0002000EB0B0141448A
:101C60000890AAEB010AE00306D4DDE90F23214620
:101C7000504600F063F806444FF0000908E009A957
:101C800011F80900DDE90F12904709F10109761CEE
:101C9000C145F4DBE0030CD5DDE90F2321465046B6
:101CA00000F04CF8064404E0DDE90F1230209047C4
:101CB000761C0899481E08900029F5DC08E00A986F
:101CC0000A990078491C0A91DDE90F129047761CA9
:101CD000BBF10001ABF1010BF1DC21465046DDE91F
:101CE0000F2300F019F806446D1C21E609280100B5
:101CF0003031323334353637383961626364656682
:101D00000000000030313233343536373839414243
:101D100043444546000000002DE9F04104460025FB
:101D20001E461746880404D405E039462020B047F3
:101D30006D1C641EF9D52846BDE8F0812DE9F041FF
:101D4000044600251E469046C80301D5302700E012
:101D50002027880404D505E041463846B0476D1C6D
:101D6000641EF9D52846BDE8F0810A68531C0B6053
:101D70001070704700B585B000BF2E48806940F0F4
:101D800004002C4988610846806900F00400009036
:101D900000BF00BF00BF0846806940F02000886196
:101DA0000846806900F02000009000BF00BF00BF1F
:101DB0000846806940F4804088610846806900F4E4
:101DC0008040009000BF00BF00BF0846806940F01F
:101DD000010088610846806900F00100009000BFA2
:101DE00000BF4815019002200290012003900320BB
:101DF000049001A91048FEF769FB4FF48060019040
:101E00000020029001A90C48FEF760FB4FF480709F
:101E100001900120029003900320049001A906483C
:101E2000FEF754FB0420019001A90448FEF74EFB85
:101E300005B000BD00100240000801400014014040
:101E400010B504460F481049086008464460002158
:101E50008160C160016181610C214161FFF7D4F9AA
:101E60002520FEF744FD032211462520FEF74FFDF5
:101E700005480068C06840F0200003490968C86050
:101E800010BD000000380140A80000202DE9F05FDF
:101E90000746894616463648D0F800800025354862
:101EA000D0F800A0AB463448007800B3334800783F
:101EB000E8B93348826928466D1C47F8202030482D
:101EC0004069441E2F480068844210D32D480068A2
:101ED0002D4909680844A04209D3102D07D24D4569
:101EE00005D228466D1C47F820404FF0010B2348CF
:101EF000007848B1464501D2464605E008EB0A00A5
:101F0000B04201D208EB0A062AE03068041F04F050
:101F1000010000B923E03068441E1A480068001D23
:101F200084421BD317480068174909680844A04237
:101F300014D3102D12D2201F00F070F970B14D454E
:101F40000CD2022D06D1BBF1000F03D07868A0425D
:101F500000D104E028466D1C47F8204000BF361D24
:101F600008EB0A00B042D0D82846BDE8F09F000038
:101F70008C000020900000209D0000209E0000208A
:101F80002455002094000020980000202DE9F04303
:101F90008DB081460E4635462C462022604905A864
:101FA000FEF746F95F4807685F48D0F800805F4851
:101FB000007848B95E4A5FA160A0FFF75BFC67A0AC
:101FC000FFF758FC00BFFEE76548007848B1584A63
:101FD00064A15AA0FFF74EFC60A0FFF74BFC00BFC6
:101FE000FEE701205E49087061A0FFF743FC5BA09B
:101FF000FFF740FC00F0FCF85E49C86AFFF73AFCC6
:1020000056A0FFF737FC2035BD4203D307EB08008D
:10201000A84202D20120584908702A464146384653
:1020200000F014F95448007800284BD15149086B4E
:10203000FFF720FC49A0FFF71DFC5049206808600D
:1020400060684860A0688860E068C86020690861CE
:1020500060694861A0698861E069C8610846C06834
:10206000464A08999268079BCDE90132CDE90310F1
:102070004248406800904148069B026840A005998C
:10208000FFF7F8FB35A0FFF7F5FB3C48C0693B497B
:102090000C9A89690B9BCDE90131CDE903203748C2
:1020A0004069009035480A9B026935A00999FFF7FD
:1020B000E1FB2AA0FFF7DEFB3CA0FFF7DBFB27A03C
:1020C000FFF7D8FB494800682C4908624748001DC3
:1020D000007881F824004548103000688862434841
:1020E000401D007881F82C004048143000680863D7
:1020F0003E48801D008888863C4808300068886318
:102100003A480C300088C8633848183000880864A2
:1021100000F004F9284600F0EDFA0DB0BDE8F083B8
:10212000944A00088C000020900000209C000020B1
:10213000804A0008696E69745F6F6B0028257329F7
:102140002068617320617373657274206661696CC5
:1021500065642061742025732E0000000D0A0000C4
:102160009D000020216F6E5F6661756C7400000039
:1021700000000000D44900089E00002024550020E3
:10218000202025733A2025303878202025733A20E6
:1021900025303878202025733A20253038782020C3
:1021A00025733A2025303878000000003D3D3D3D44
:1021B0003D3D3D3D3D3D3D3D3D3D3D3D3D3D3D3D4F
:1021C0003D3D3D3D3D3D3D3D3D3D3D3D3D3D3D3D3F
:1021D0003D3D3D3D3D3D3D3D3D3D3D3D3D3D3D3D2F
:1021E0003D3D3D3D3D3D3D3D3D3D000024ED00E09C
:1021F00010B50549054B064A48680649FFF73AFB02
:1022000005A0FFF737FB10BDD44900087454002027
:1022100054540020345400200D0A000001460B885D
:102220004A8802F47840B0F5784F06D103F478403C
:10223000B0F5704F01D10120704702F47F40B0F536
:102240008E4F01D10120F7E70020F5E770B5054674
:102250000E4614461C480078D8B11C48007840B19E
:102260001B4988692146FFF705FB1AA0FFF702FB0F
:1022700007E01749C8692146FFF7FCFA15A0FFF7E8
:10228000F9FAAC4201D22C4603E0A819A04200D2D0
:10229000AC190F490869FFF7EDFA0EA0FFF7EAFA4B
:1022A00008E021460CA02268FFF7E4FA09A0FFF736
:1022B000E1FA241DA819A042F3D80EA0FFF7DAFA1C
:1022C00004A0FFF7D7FA70BD9E0000209F000020F9
:1022D000D44900080D0A00002020616464723A208D
:1022E0002530387820202020646174613A20253020
:1022F000387800003D3D3D3D3D3D3D3D3D3D3D3D52
:102300003D3D3D3D3D3D3D3D3D3D3D3D3D3D3D3DFD
:102310003D3D3D3D3D3D3D3D0000000010B5B14817
:1023200090F83800C0F3400030B1AF49486BFFF778
:10233000A1FAAEA0FFF79EFAAA48806BC0F38070A6
:1023400000287DD0A74890F8240000284ED0A5484A
:1023500090F8240000F0010030B1A349886BFFF72A
:1023600089FAA2A0FFF786FA9E4890F82400C0F3ED
:10237000400030B19C49C86BFFF77CFA9BA0FFF787
:1023800079FA984890F82400C0F3C00030B196491B
:10239000086CFFF76FFA95A0FFF76CFA914890F878
:1023A0002400C0F3001030B18F49486CFFF762FA87
:1023B0008EA0FFF75FFA8B4890F82400C009A8B1FF
:1023C000884890F8240000F0010028B9854890F86A
:1023D0002400C0F3400048B1824A916A824AD2F890
:1023E0009000FFF747FA81A0FFF744FA7D4890F884
:1023F0002C00002857D07B4890F82C0000F00100FA
:1024000030B17949C86CFFF735FA78A0FFF732FA96
:10241000744890F82C00C0F3400030B17249086D48
:10242000FFF728FA71A0FFF725FA6E4890F82C0004
:10243000C0F3800040B16C49486DFFF71BFA00E023
:1024400081E06AA0FFF716FA664890F82C00C0F306
:10245000C00030B16449886DFFF70CFA63A0FFF744
:1024600009FA604890F82C00C0F3001030B15E49C2
:10247000C86DFFF7FFF95DA0FFF7FCF9594890F828
:102480002C00C00978B1574890F82C00C0F34000E8
:1024900048B1544A116B544AD2F89400FFF7EAF954
:1024A00052A0FFF7E7F94F48808E00284BD04D48E7
:1024B00090F8340000F0010030B14B49486EFFF74E
:1024C000D9F94AA0FFF7D6F9464890F83400C0F38E
:1024D000400030B14449886EFFF7CCF943A0FFF7C4
:1024E000C9F9404890F83400C0F3800030B13E494B
:1024F000C86EFFF7BFF93DA0FFF7BCF9394890F867
:102500003400C0F3C00030B13749086FFFF7B2F9AB
:1025100036A0FFF7AFF93348808EC0F3002030B10A
:102520003149486FFFF7A6F930A0FFF7A3F92D480E
:10253000808EC0F3402030B12B49886FFFF79AF9A5
:102540002AA0FFF797F92748806BC00F002848D0D2
:102550002448C06B002844D0224890F83C0000F08A
:10256000010030B12049C86FFFF784F91FA0FFF7C1
:1025700081F91C4890F83C00C0F3400038B11A497A
:10258000D1F88000FFF776F918A0FFF773F9154826
:1025900090F83C00C0F3800038B11349D1F88400B2
:1025A000FFF768F911A0FFF765F90E4890F83C00B5
:1025B000C0F3C00038B10C49D1F88800FFF75AF9D0
:1025C0000AA0FFF757F9074890F83C00C0F3001045
:1025D00038B10549D1F88C00FFF74CF903A0FFF79B
:1025E00049F910BD24550020D44900080D0A000007
:1025F00013B50C464FF47A73012269460648FEF77C
:10260000ADFE00BF044800680068C0F3C010002899
:10261000F8D000981CBD0000A800002012E00122A4
:1026200011020948FEF7F2F84FF4FA7001F0F0F8E1
:1026300000224FF480710448FEF7E8F84FF4FA7076
:1026400001F0E6F8EBE700000008014011E001228C
:1026500004210848FEF7DAF84FF4FA7001F0D8F8D0
:10266000002204210348FEF7D1F84FF4FA7001F07C
:10267000CFF8ECE7001401401CB503200246124BD2
:1026800019684FF6FF031940104B0B4343EA022130
:102690000D4B196000BFFEF7C5F8FFF76BFB4FF459
:1026A000E130FFF7CDFB0AA0FFF7E4F80C48012169
:1026B00000238022CDE900100AA10D4801F0AAFEF6
:1026C00001F04CFA00201CBD0CED00E00000FA0502
:1026D0004672656552544F532054657374210A0045
:1026E0000000002073746172745F7461736B00008A
:1026F0002534000870B592B006460025402102A896
:10270000FDF7AFFD3246102102A8FFF7BFFB0546DB
:10271000002410E002A951F8242004EBC401134B5B
:10272000C81813A1FFF7B6F8202104EBC400083045
:102730000E4A1154641CAC42ECD36DB10B4805EB4E
:10274000C5030D4900900DA2086A0E49FFF792F8E3
:102750000DA0FFF78FF806E00749486AFFF78AF8EF
:1027600009A0FFF787F812B070BD00009454002054
:102770002530386C78000000D44900082E61786656
:1027800000000000345400200D0A00002DE9F04143
:1027900005460E461C4807681C480068001D00F0EE
:1027A00077FE50B91948006890F82C100120884035
:1027B00017490968814316480160681C38B936B169
:1027C00012480168091D134800F0A0FE1AE07C19A8
:1027D0000E4800684460BC4207D20C480168091DDD
:1027E0000D48006800F078FE0CE008480168091DFB
:1027F0000A48006800F070FE09480068844201D26F
:1028000007480460BDE8F0812C000020180000207B
:1028100030000020F8030020200000201C000020D1
:102820004800002010B5044600F07CFE24480068F3
:10283000401C234908602348006840B921480460CF
:102840000846006801280DD100F0F0F90AE01E48A2
:10285000006838B91B480068C06AE16A884201D83C
:102860001848046019480068401C18490860084668
:102870000068606494F82C100120884014490968AD
:10288000084313490860E16A01EB8101114A02EB38
:102890008100211D00F03AFE00F088FE0A48006821
:1028A00068B108480068C06AE16A884207D24FF000
:1028B000805009490860BFF34F8FBFF36F8F10BD81
:1028C00028000020180000203400002044000020D0
:1028D000300000202801002004ED00E010B500F0D9
:1028E00021FE10480068D0B90F4800F0E5FD0F4800
:1028F00000F0E2FD0C480E4908600C480D490860E4
:1029000000221021052001F049FA06490860084616
:10291000006820B108A10348006800F03DFF00F006
:1029200045FE10BD5C0000200C04002020040020A7
:102930005400002058000020546D72510000000027
:1029400070B523E001F062F91348006808B901206E
:1029500000E00020054601F01FFFBDB900F0E2FDD8
:102960000D48C068C468201D00F092FD0B48006847
:10297000401E0A4908600A480068401E084908606D
:1029800000F014FE204600F060F800BF0448006824
:102990000028D7D170BD0000E403002028000020EB
:1029A0002400002070B504460D46206C70B1216CE7
:1029B000E0680844E0606168E068884201D320680C
:1029C000E0602846226CE168FDF732FC70BD2DE91D
:1029D000F04104460F4615464FF00008A66B206CE8
:1029E00040B9206860BB606801F00CFE80460020A2
:1029F000606025E07DB93946226CA068FDF718FCBF
:102A0000216CA0680844A060D4E90110884217D363
:102A10002068A06014E03946226CE068FDF708FCED
:102A2000216CE068401AE0602168E068884203D2C7
:102A3000216C6068401AE060022D01D106B1761E5B
:102A4000701CA0634046BDE8F08110B50446206BC1
:102A500000F0E4FD204600F0E1FD10BD0146084A0B
:102A6000126812680AB9012200E000220A600A68AE
:102A700022B9034A1268D268106800E0002070474B
:102A80005400002030B54FF4A043174800F007046D
:102A90002CB1C01D20F00700134C041B1B1B024669
:102AA000124C22600024114D6C60D018083820F0C0
:102AB00007000F4C206000240D4D2D686C600C4DFC
:102AC0002D682C601146441A4C60094C24680C6037
:102AD000084D4C682C60084D4C682C604FF0004449
:102AE000064D2C6030BD000034040020740000202E
:102AF0007C0000208400002080000020880000204E
:102B000000BFFFF71DFF064800680128F9D94FF004
:102B1000805004490860BFF34F8FBFF36F8FF0E719
:102B20002801002004ED00E02DE9F04106460D46A5
:102B300017469846069C0DB9246000E02760E663BE
:102B400025640121204601F04BFA84F850800020D2
:102B5000A064BDE8F08100002DE9F05F82460F46D9
:102B600090469B460A9E0C9C4FEA8801A522206B4A
:102B7000FDF770FBA8F10100216B01EB800929F042
:102B8000070909F0070008B9012000E0002028B972
:102B900040F22B321BA121A0FEF76CFE002507E0BE
:102BA000795D04F134004155785D00B902E06D1C97
:102BB000102DF5D300BF002143200155202E00D356
:102BC0001F26E662E66400202065201D00F081FCDF
:102BD00004F1180000F07DFC2461C6F12000A06122
:102BE00064620020606584F858005A4651464846A1
:102BF00000F006FC20600B9808B10B980460BDE85B
:102C0000F09F00002E2E5C52544F535C536F757230
:102C100063655C7461736B732E6300004572726F41
:102C2000723A25732C25640D0A00000010B50024AB
:102C300007E004EB84010F4A02EB810000F03CFC4A
:102C4000641C202CF5D30C4800F036FC0B4800F037
:102C500033FC0B4800F030FC0A4800F02DFC0A4819
:102C600000F02AFC04480949086004480849086043
:102C700010BD000028010020A8030020BC03002094
:102C8000D0030020E4030020F80300201C000020F3
:102C90002000002010B50146164800E000680368D7
:102CA0008B42FBD30246436813448B4204D14368F2
:102CB0004C682344436001460A464B681344046849
:102CC000A34211D10C4C03682468A34208D04B687E
:102CD0000468646823444B6003681B680B6005E06C
:102CE000054B1B680B6001E003680B60884200D055
:102CF000016010BD740000207C0000202DE9F0412F
:102D000004460D4616461F464FF0000865602461D4
:102D1000B5420CD8F01BA169884202D34FF00108DC
:102D200011E0211D0948006800F0D6FB0BE0BE420F
:102D300004D2BD4202D34FF0010804E0211D044833
:102D4000006800F0C9FB4046BDE8F0815800002053
:102D50005400002070B5054600F0E4FBA86B08B9EC
:102D6000012400E0002400F021FC204670BD70B575
:102D7000054600F0D7FBA86BE96B884201D101241E
:102D800000E0002400F012FC204670BD2DE9F34164
:102D90000D460098846C00272CB940F6CE121AA17B
:102DA0001FA0FEF767FDA06BE16B884201D20120F6
:102DB00000E0002028B940F6CF1213A118A0FEF7BA
:102DC00059FDA06BE16B88421BD294F945602A46FD
:102DD00069462046FFF7FBFD0746701C60B9606A34
:102DE00008B9012000E0002050B904F1240001F0EE
:102DF00077FC28B1012703E0701C40B284F845003D
:102E000000BF3846BDE8FC812E2E5C52544F535C07
:102E1000536F757263655C71756575652E6300002F
:102E20004572726F723A25732C25640D0A000000FA
:102E3000F8B505460F4613480068C068C468201DF1
:102E400000F026FBE069012818D1A06941192B4642
:102E50003A462046FFF752FF80B1002003462A463B
:102E600001460090204601F063FD06462EB94FF45E
:102E7000027205A10AA0FEF7FDFC00BF2046616AB0
:102E80008847F8BD540000202E2E5C52544F535CEE
:102E9000536F757263655C74696D6572732E630040
:102EA0004572726F723A25732C25640D0A0000007A
:102EB000F0B587B070E0039800280CDA04AE2EB9A4
:102EC00040F2E7223AA140A0FEF7D4FCD6E9002068
:102ED000B168904700BF039800285DDB059C6069DE
:102EE00008B9012000E0002010B9201D00F0D0FA40
:102EF00002A800F0C7F8054603980A284AD2DFE87E
:102F000000F00905072C2E4506082D2F00BF00BF35
:102F100000BF00BF0498A269811803462A462046D4
:102F2000FFF7ECFEC0B12046616A8847E0690128DE
:102F300012D1002000900498A1694218002319467C
:102F4000204601F0F5FC07462FB940F2213218A1C6
:102F50001DA0FEF78FFC00BF1DE000BF1BE000BFFF
:102F60000498A061A06908B1012000E0002028B900
:102F70004FF44E720EA114A0FEF77CFCA06941191B
:102F80002B462A462046FFF7B9FE04E0204600F013
:102F900045FB00E000BF00BF00231A4603A90E480E
:102FA000006800F037FF002885D107B0F0BD0000B1
:102FB0002E2E5C52544F535C536F757263655C7474
:102FC000696D6572732E63004572726F723A257374
:102FD0002C25640D0A0000005C000020F8B50546B1
:102FE0000C4600F013FE684600F04CF806460098C8
:102FF00020BB44B9B54206D801F0CEFB3146284685
:10300000FFF716FF1CE03CB10E480068006808B9E5
:10301000012000E000200446A91B22460A4800685F
:1030200000F0D0FB01F0B8FB50B94FF080500749D9
:103030000860BFF34F8FBFF36F8F01E001F0ACFB6F
:10304000F8BD0000580000205C00002004ED00E006
:103050000A490968096809B9012100E0002121B184
:103060004FF0FF31064A116006E004490968C9685B
:10307000C868034A41681160704700001C000020C6
:103080004800002070B5044601F004FA05460748E0
:103090000068854204D200F00BF80120206001E0B6
:1030A0000020206001480560284670BD64000020B3
:1030B0002DE9F8432DE021480068C06805681F48E5
:1030C0000068C068C468201D00F0E2F92046616A0B
:1030D0008847E06901281CD1A0694619AE4207D98A
:1030E00066602461211D1548006800F0F5F910E0C4
:1030F000002003462A4601460090204601F018FCB5
:1031000007462FB940F292320DA113A0FEF7B2FB91
:1031100000BF0A480068006808B9012000E00020EC
:103120000028C8D00548D0F800800F48006803493F
:1031300008600D48C0F80080BDE8F8835400002006
:103140002E2E5C52544F535C536F757263655C74E2
:10315000696D6572732E63004572726F723A2573E2
:103160002C25640D0A000000580000200B48006860
:10317000401C08B9012000E0002020B9F42208A179
:1031800012A0FEF777FB00BF502080F31188BFF339
:103190004F8FBFF36F8F00BF00BFFEE768000020B6
:1031A0002E2E5C52544F535C536F757263655C7086
:1031B0006F727461626C655C525644535C41524D4F
:1031C0005F434D335C706F72742E63004572726F93
:1031D000723A25732C25640D0A00000008B500BF63
:1031E0006846FFF73BFC044620460099FFF7F6FED1
:1031F000FFF75EFEF4E770B5044600F093F994F92A
:1032000045501AE0A06C38B100212046FFF7BEFD02
:1032100088B100F0C1FB0EE0606A08B9012000E04F
:10322000002038B904F1240001F05AFA18B100F076
:10323000B3FB00E003E0681E45B2002DE2DC00BFF6
:10324000FF2084F8450000F0B1F900F06BF994F923
:10325000445010E0206908B9012000E0002048B97E
:1032600004F1100001F03CFA08B100F095FB681E73
:1032700045B200E001E0002DECDC00BFFF2084F847
:10328000440000F093F970BD2DE9F04104464FF081
:10329000000800F0BBFC3E48006808B9FFF7F2FBED
:1032A0003C480068204000285FD1A4B1083404F0F5
:1032B000070080B104F00700C0F10800044404F0E6
:1032C000070008B9012000E0002020B9BF2232A188
:1032D0003CA0FEF7CFFA002C47D03E48006884425D
:1032E00043D83D4E3046056801E02E462D6868689B
:1032F000A04202D228680028F7D1254800688542FC
:1033000033D0306800F10808286830606868001B16
:10331000102813D92F1907F0070008B9012000E081
:10332000002020B9EC221CA126A0FEF7A3FA6868B1
:10333000001B78606C603846FFF7ACFC2549686874
:103340000968081A23490860084600682349096883
:10335000884203D21F480068204908600D49686808
:103360000968084368600020286001F015FA08F039
:10337000070008B9012000E0002028B94FF4967238
:1033800005A110A0FEF776FA4046BDE8F0810000E6
:103390007C000020880000202E2E5C52544F535C8D
:1033A000536F757263655C706F727461626C655C9B
:1033B0004D656D4D616E675C686561705F342E634D
:1033C000000000004572726F723A25732C25640D5F
:1033D0000A0000008000002074000020840000200B
:1033E0000648006830B10549096801F15000096DCF
:1033F000491C016001480068704700001800002067
:10340000001F4FF080730360001F21F00103036071
:10341000001F034B0360143802602038704700001F
:103420006D3100081CB5044600F07CF80D480221FF
:1034300000233222CDE900100BA10E4800F0EAFF74
:103440000D48032100233222CDE900100BA10E48C4
:1034500000F0E0FF0D48006800F016FA00F0A6F852
:103460001CBD0000040000206C6564305F74617353
:103470006B0000001D260008080000206C65643108
:103480005F7461736B0000004D260008000000208F
:1034900001460A69D1E901309860D1E90103586019
:1034A0005068884201D18868506000200861106827
:1034B000401E10601068704700F1080141604FF035
:1034C000FF31816000F10801C160016100210160EC
:1034D000704700210161704710B502460B685C1C03
:1034E0000CB9106907E002F1080000E04068446888
:1034F00024689C42FAD944684C604C68A16088609A
:1035000041600A611468641C146010BD42684A601E
:1035100093688B60936859609160086103685B1CD5
:103520000360704710B500BF502080F31188BFF3CF
:103530004F8FBFF36F8F00BF0B480068401C0A49D4
:1035400008600846006801280DD108480068C0B22C
:1035500008B9012000E0002028B94FF4BD7204A191
:103560000EA0FEF787F910BD6800002004ED00E012
:103570002E2E5C52544F535C536F757263655C70B2
:103580006F727461626C655C525644535C41524D7B
:103590005F434D335C706F72742E63004572726FBF
:1035A000723A25732C25640D0A00000010B50B48F3
:1035B000006828B940F2811209A114A0FEF75AF957
:1035C00006480068401E054908600846006820B9A2
:1035D000002080F3118800BF00BF10BD68000020EC
:1035E0002E2E5C52544F535C536F757263655C7042
:1035F0006F727461626C655C525644535C41524D0B
:103600005F434D335C706F72742E63004572726F4E
:10361000723A25732C25640D0A00000070B5064629
:103620003546002E35D0083D2C461A496068096899
:10363000084008B1012000E0002028B94FF4A07232
:1036400015A120A0FEF716F9206808B9012000E0B6
:10365000002028B940F241120FA11AA0FEF70AF982
:103660000C4960680968084098B1206888B9094920
:10367000606809688843606000F0C8FA15496068AE
:1036800009680844134908602046FFF703FB01F06E
:1036900083F870BD880000202E2E5C52544F535C7E
:1036A000536F757263655C706F727461626C655C98
:1036B0004D656D4D616E675C686561705F342E634A
:1036C000000000004572726F723A25732C25640D5C
:1036D0000A00000080000020064800684FF47A715C
:1036E000B0FBF1F0401E4FF0E02148610720086177
:1036F00070470000A000002070B5FCF76DFD054686
:10370000102D11D305F1E02090F8F0431048007817
:10371000844201DB012000E0002028B94FF42A7226
:103720000CA117A0FEF7A6F81948006800F4E060A5
:1037300018490968884201D8012000E0002028B912
:103740004FF42E7203A10EA0FEF794F870BD000096
:103750006C0000202E2E5C52544F535C536F7572D8
:1037600063655C706F727461626C655C5256445341
:103770005C41524D5F434D335C706F72742E630039
:103780004572726F723A25732C25640D0A00000091
:103790000CED00E070000020024600200BE0084B1A
:1037A00053F8303033B9064B43F8301003EBC00305
:1037B0005A6002E0401C0828F1D300BF70470000A7
:1037C000E80000202DE9F04105460E4617462C463C
:1037D000FFF7A8FE94F94400401C10B9002084F8BB
:1037E000440094F94500401C10B9002084F84500BD
:1037F000FFF7DCFEA06B28B93A46314604F12400FD
:1038000000F0FCF82046FFF7F6FCBDE8F081000070
:1038100070B504460025ACB10F48006808B9012016
:1038200000E0002028B940F2CF420CA111A0FEF721
:1038300021F800F0EBF900212046FEF7A7FF00F089
:10384000ABFF05463DB94FF080500E490860BFF30D
:103850004F8FBFF36F8F70BD500000202E2E5C5233
:10386000544F535C536F757263655C7461736B7313
:103870002E6300004572726F723A25732C25640D19
:103880000A00000004ED00E070B50546FFF74AFEAF
:1038900015B92D48006800E028460446201DFFF7B2
:1038A000F7FD78B9E06A00EB8000284951F8200064
:1038B00040B994F82C1001208840254909688143BB
:1038C00023480160A06A18B104F11800FFF7E0FD79
:1038D00020480068401C1F4908601B48006884425B
:1038E00009D1211D1C48FFF711FE1C480068401C2F
:1038F0001A49086009E01A480068401E1849086023
:103900002046FFF7A2F8FFF7A3FBFFF74FFE15488D
:103910000068C0B10C480068844214D112480068A5
:1039200008B9012000E0002028B940F265420FA14B
:1039300014A0FDF79FFF4FF0805016490860BFF3B9
:103940004F8FBFF36F8F70BD18000020280100203B
:103950003000002044000020E40300202400002068
:103960002800002034000020500000202E2E5C5241
:10397000544F535C536F757263655C7461736B7302
:103980002E6300004572726F723A25732C25640D08
:103990000A00000004ED00E00120014908607047C2
:1039A0003C00002070B504460D462CB940F60632A6
:1039B00007A10DA0FDF75EFF0F48016818312046F2
:1039C000FFF78AFD01212846FEF7E0FE70BD0000EA
:1039D0002E2E5C52544F535C536F757263655C744A
:1039E00061736B732E6300004572726F723A2573B8
:1039F0002C25640D0A0000001800002070B5054653
:103A00000E4614462DB940F6313209A10EA0FDF73D
:103A100031FF1148016818312846FFF777FD0CB1D6
:103A20004FF0FF3621463046FEF7B0FE70BD000075
:103A30002E2E5C52544F535C536F757263655C74E9
:103A400061736B732E6300004572726F723A257357
:103A50002C25640D0A0000001800002070B50546F2
:103A60002C46002D4BD02649E06A0968C96A884275
:103A700045D2A06900F0004028B921480068C06A1A
:103A8000C0F12000A061E16A01EB81011D4A02EB57
:103A900081016069884201D1012000E0002050B31B
:103AA000201DFFF7F5FC78B9E06A00EB80001549AE
:103AB00051F8200040B994F82C1001208840124998
:103AC00009688143104801600D480068C06AE062DF
:103AD00094F82C10012088400B49096808430A49D2
:103AE0000860E16A01EB8101064A02EB8100211DB9
:103AF000FFF70CFD03E002480068C06AE06270BD99
:103B000018000020280100203000002010B50446D5
:103B10002CB940F6C13205A10AA0FDF7ABFE0D4855
:103B2000006820600C480068606010BD2E2E5C525A
:103B3000544F535C536F757263655C7461736B7340
:103B40002E6300004572726F723A25732C25640D46
:103B50000A000000400000202C0000201CB51A487C
:103B600000210B468222CDE9001018A1194800F06F
:103B700051FC0446012C02D100F0A0FE0446012CA9
:103B800015D100BF502080F31188BFF34F8FBFF3D2
:103B90006F8F00BF4FF0FF300F49086001200F49C1
:103BA000086000200E49086000F08EF80BE0601CF1
:103BB00008B1012000E0002028B940F2847209A178
:103BC0000EA0FDF757FE1CBD4C00002049444C459B
:103BD00000000000012B00084800002034000020F5
:103BE0002C0000202E2E5C52544F535C536F757284
:103BF00063655C7461736B732E6300004572726F52
:103C0000723A25732C25640D0A00000002480068F2
:103C1000401C0149086070475000002010B51B4847
:103C2000006818B101201A4908602DE000201849E9
:103C3000086018480068B0FA80F0C0F11F0404EB77
:103C40008400154951F8200008B1012000E000204F
:103C500028B940F6F62211A116A0FDF70BFE04EBE1
:103C600084010D4A02EB810041684968416000F11E
:103C7000080142688A4202D141684968416041684E
:103C8000C968104A116000BF10BD0000500000203C
:103C90003C00002030000020280100202E2E5C5225
:103CA000544F535C536F757263655C7461736B73CF
:103CB0002E6300004572726F723A25732C25640DD5
:103CC0000A000000180000201CB5224801460978AF
:103CD0000191FF21024611700146097800919DF87B
:103CE000001001F050011C4A117007211B4A11609D
:103CF00009E01A490968491E184A11609DF8001028
:103D00004906090E00919DF8001001F080018029FC
:103D1000EFD0124909680902104A1160114609885A
:103D200001F4E06111600B4A019911700C480068C0
:103D300040F470000A4908600846006840F070408E
:103D40000860FFF7C9FC002006490860FCF70EFA7E
:103D500000201CBD00E400E06C000020700000208A
:103D600020ED00E06800002010B500BF502080F377
:103D70001188BFF34F8FBFF36F8F00BF00F090FB30
:103D800018B14FF080500449086000BF002080F354
:103D9000118800BF10BD000004ED00E02DE9F843DC
:103DA00005460E4690460DB1012000E0002028B9DE
:103DB0004FF4C4720DA113A0FDF75CFD0EB90027EE
:103DC00001E005FB06F707F15400FFF75DFA044632
:103DD00044B104F1540943464A463146284600940A
:103DE000FEF7A2FE2046BDE8F88300002E2E5C52AE
:103DF000544F535C536F757263655C71756575657F
:103E00002E6300004572726F723A25732C25640D83
:103E10000A0000002DE9FF4782B005460E461F4606
:103E20004FF0000A2C462CB940F2DC4261A167A099
:103E3000FDF720FD0EB9206C08B9012000E000203C
:103E400028B940F2DD425BA160A0FDF713FD00F050
:103E500011FB08B9049808B9012000E0002028B936
:103E60004FF49C6253A159A0FDF704FD00BFFFF77A
:103E700059FBD4F83890B9F1000F3DD0D4F80C803C
:103E800031462046FEF78EFDDFB9A9F10100A0639F
:103E9000206810B9FFF7A4FA6060206908B9012012
:103EA00000E0002010BB04F1100000F019FCE8B1A4
:103EB0004FF0805049490860BFF34F8FBFF36F8FB9
:103EC00014E0C4F80C80606A08B9012000E000200A
:103ED00060B904F1240000F003FC38B14FF08050C9
:103EE0003E490860BFF34F8FBFF36F8FFFF75EFB54
:103EF000012006B0BDE8F087049818B9FFF756FB1B
:103F00000020F6E7BAF1000F04D16846FFF7FEFD86
:103F10004FF0010AFFF74AFBFFF778FEFFF702FBBD
:103F200094F94400401C10B9002084F8440094F92E
:103F30004500401C10B9002084F84500FFF736FB0F
:103F400004A9684600F014FA40BB2046FEF702FFC1
:103F5000F0B1206830B9FFF7E5FA6068FFF77EFD41
:103F6000FFF724FB04F124000499FFF71BFD204612
:103F7000FFF741F900F010FC00287FF478AF4FF014
:103F8000805016490860BFF34F8FBFF36F8F6EE705
:103F90002046FFF730F900F0FFFB68E72046FFF707
:103FA0002AF900F0F9FB2046FEF7D4FE0028EED0F7
:103FB00000209EE72E2E5C52544F535C536F757257
:103FC00063655C71756575652E6300004572726F7F
:103FD000723A25732C25640D0A00000004ED00E000
:103FE00070B505460E462C462CB940F21B121EA198
:103FF00023A0FDF73FFCFFF795FAD4E90F122068E4
:1040000001FB020060600020A0632068A060E06BFC
:10401000401E226C216800FB0210E060FF2084F843
:10402000440084F845009EB9206908B9012000E0E9
:104030000020A8B904F1100000F052FB80B14FF04D
:10404000805013490860BFF34F8FBFF36F8F07E0B5
:1040500004F11000FFF730FA04F12400FFF72CFA06
:10406000FFF7A4FA012070BD2E2E5C52544F535C12
:10407000536F757263655C71756575652E630000BD
:104080004572726F723A25732C25640D0A00000088
:1040900004ED00E02DE9FF4383B0064688461D4647
:1040A0004FF0000934462CB940F2D92260A166A035
:1040B000FDF7E0FBB8F1000F01D1206C08B9012039
:1040C00000E0002028B940F2DA2259A15EA0FDF7F5
:1040D000D1FB022D02D1E06B012801D1012000E0CB
:1040E000002028B940F2DB2251A157A0FDF7C2FB06
:1040F00000F0C0F908B9059808B9012000E00020D7
:1041000028B940F2DE224AA14FA0FDF7B3FB00BF61
:10411000FFF708FAA06BE16B884201D3022D38D17A
:104120002A4641462046FEF752FC0746A06C68B17D
:1041300029462046FEF72AFE28B34FF08050464914
:104140000860BFF34F8FBFF36F8F1CE0606A08B940
:10415000012000E0002068B904F1240000F0C0FA5A
:1041600088B14FF080503C490860BFF34F8FBFF3D8
:104170006F8F08E03FB14FF0805037490860BFF3C0
:104180004F8FBFF36F8FFFF711FA012007B0BDE823
:10419000F083059818B9FFF709FA0020F6E7B9F19E
:1041A000000F04D101A8FFF7B1FC4FF00109FFF7A0
:1041B000FDF9FFF72BFDFFF7B5F994F94400401C1A
:1041C00010B9002084F8440094F94500401C10B94F
:1041D000002084F84500FFF7E9F905A901A800F0DF
:1041E000C7F8F0B92046FEF7C2FDA0B104F11000F7
:1041F0000599FFF7D7FB2046FEF7FDFF00F0CCFA4C
:10420000002885D14FF0805013490860BFF34F8FCD
:10421000BFF36F8F7CE72046FEF7EDFF00F0BCFA9E
:1042200076E72046FEF7E7FF00F0B6FA0020ADE79C
:104230002E2E5C52544F535C536F757263655C71E4
:10424000756575652E6300004572726F723A25734D
:104250002C25640D0A00000004ED00E02DE9F05F5C
:1042600080468A4615461E4644462CB940F29F3287
:1042700035A13BA0FDF7FEFABAF1000F01D1206C89
:1042800008B9012000E0002028B94FF468722EA17F
:1042900033A0FDF7EFFA022E02D1E06B012801D125
:1042A000012000E0002028B940F2A13226A12CA074
:1042B000FDF7E0FAFFF720FA00BF5021EFF311807D
:1042C00081F31188BFF34F8FBFF36F8F00BF074695
:1042D000A06BE16B884201D3022E2BD194F945B03B
:1042E000324651462046FEF772FB0BF10100C8B979
:1042F000A06C40B131462046FEF748FDB8B1B5B1DB
:104300000120286013E0606A08B9012000E0002065
:1043100068B904F1240000F0E3F940B13DB1012097
:10432000286004E00BF1010040B284F845004FF032
:10433000010901E04FF0000900BF87F3118800BFB9
:104340004846BDE8F09F00002E2E5C52544F535C4F
:10435000536F757263655C71756575652E630000DA
:104360004572726F723A25732C25640D0A000000A5
:104370002DE9F04104460D462CB940F6CB3219A187
:104380001EA0FDF777FA2DB940F6CC3215A11BA07F
:10439000FDF770FAFFF7C6F81C4807682868401C4C
:1043A00008B9002619E01A4920680968884204D033
:1043B0006068B84201D801260FE06068381A2968A1
:1043C000884209D228686168791A401A2860204614
:1043D000FFF79CFB002600E00126FFF7E7F83046D8
:1043E000BDE8F0812E2E5C52544F535C536F7572B2
:1043F00063655C7461736B732E6300004572726F4A
:10440000723A25732C25640D0A0000002C00002050
:10441000400000202DE9FF4F85B0804689461746B1
:10442000DDE912ABB800FEF72FFF064656B15C205F
:10443000FEF72AFF04460CB1266304E03046FFF77E
:10444000EDF800E000247CB10020CDE900ABCDE91F
:1044500002403A4649464046089BFEF77DFB20460F
:10446000FEF7E0F9012501E04FF0FF35284609B0DD
:10447000BDE8F08F0549096809B9012005E0044944
:10448000096809B9022000E00020704734000020CC
:104490005000002001490868704700002C000020EF
:1044A0002DE9F0414FF0000841480068002872D122
:1044B00040480068451C3F480560EDB93E4800682B
:1044C000006808B9012000E0002028B940F6D912A0
:1044D0003AA140A0FDF7CEF9374807684148006887
:1044E000354908603F4807603F480068401C3E4926
:1044F0000860FEF7ADFD00BF3C48006885423CD334
:1045000000BF2D480068006808B9012000E00020C5
:1045100020B14FF0FF30354908602DE02648006893
:10452000C068C4686668B54202D23048066023E0BD
:10453000201DFEF7ADFFA06A18B104F11800FEF7C8
:10454000A7FF94F82C1001208840294909680843E6
:1045500027490860E16A01EB8101264A02EB8100EC
:10456000211DFEF7D3FF2449E06A0968C96A884221
:10457000C7D34FF00108C4E700BF1F480068C06AF6
:1045800000EB80001B4951F82000012801D94FF0B1
:10459000010805E0FFE719480068401C174908605A
:1045A0001748006808B14FF001084046BDE8F081A7
:1045B000500000202C0000201C0000202E2E5C52F9
:1045C000544F535C536F757263655C7461736B73A6
:1045D0002E6300004572726F723A25732C25640DAC
:1045E0000A000000200000204000002048000020B9
:1045F0003000002028010020180000203800002092
:104600003C00002070B505462C460026002D4BD0FE
:1046100026480068844201D1012000E0002028B92A
:1046200040F6C76222A128A0FDF724F9206D28B921
:1046300040F6C9621EA124A0FDF71CF9206D401EA2
:104640002065E16CE06A88422ED0206D60BB201DA1
:10465000FEF71EFF78B9E06A00EB80001E4951F8B2
:10466000200040B994F82C10012088401B490968AB
:1046700081431A480160E06CE062E06AC0F120000A
:10468000A06194F82C10012088401449096808435F
:1046900012490860E16A01EB81010F4A02EB8100D7
:1046A000211DFEF733FF0126304670BD18000020A3
:1046B0002E2E5C52544F535C536F757263655C745D
:1046C00061736B732E6300004572726F723A2573CB
:1046D0002C25640D0A000000280100203000002075
:1046E00070B50646F068C4682CB940F661321AA16C
:1046F0001FA0FDF7BFF804F11800FEF7C9FE20481F
:104700000068A8B9201DFEF7C3FE94F82C10012004
:1047100088401C49096808431A490860E16A01EBAE
:104720008101194A02EB8100211DFEF7EFFE04E032
:1047300004F118011548FEF7E9FE1549E06A096819
:10474000C96A884204D9012501201249086000E0A5
:104750000025284670BD00002E2E5C52544F535C3D
:10476000536F757263655C7461736B732E630000C5
:104770004572726F723A25732C25640D0A00000091
:10478000500000203000002028010020D00300202D
:10479000180000203C00002070B50024002634489A
:1047A000006828B94FF4FD6232A138A0FDF762F825
:1047B000FEF7B8FE2E480068401E2D4908600846E6
:1047C000006800284FD13548006800284BD024E00D
:1047D0003348C068C46804F11800FEF759FE201D74
:1047E000FEF756FE94F82C10012088402D490968E8
:1047F00008432C490860E16A01EB81012A4A02EB77
:104800008100211DFEF782FE2849E06A0968C96A15
:10481000884202D30120264908602148006808B96F
:10482000012000E000200028D2D00CB1FEF710FCDF
:104830002048056865B100BFFFF732FE10B10120C6
:104840001B4908606D1E002DF6D100201949086033
:104850001748006838B10126300717490860BFF3D0
:104860004F8FBFF36F8FFEF7A1FE304670BD000083
:10487000500000202E2E5C52544F535C536F7572C3
:1048800063655C7461736B732E6300004572726FB5
:10489000723A25732C25640D0A00000028000020C0
:1048A000D003002030000020280100201800002044
:1048B0003C0000203800002004ED00E01CB500247E
:1048C000FEF70CF80B48006858B10B481F21002375
:1048D0004FF48272CDE9001008A10A48FFF79AFD53
:1048E00004462CB940F2331207A10DA0FCF7C2FF19
:1048F00020461CBD5C00002060000020546D72202A
:1049000053766300DD3100082E2E5C52544F535C09
:10491000536F757263655C74696D6572732E6300A5
:104920004572726F723A25732C25640D0A000000DF
:104930002DE9FF4704460D4616461F46DDF8308038
:104940004FF000092CB94FF4D37217A11CA0FCF74B
:1049500091FF1F48006810B3009501960294062D40
:1049600015DAFFF787FD022808D100234246694681
:1049700017480068FFF78EFB814610E000231A46B7
:10498000694613480068FFF785FB814607E000236E
:104990003A4669460E480068FFF760FC8146484683
:1049A00004B0BDE8F08700002E2E5C52544F535CDB
:1049B000536F757263655C74696D6572732E630005
:1049C0004572726F723A25732C25640D0A0000003F
:1049D0005C0000208C4C00087C4B0008004D000857
:1049E000E44C0008E84A0008104B00088C5000080E
:1049F000A8500008AC4B0008184D0008484C0008AF
:104A0000284C0008384B0008B44D0008FC4D000845
:104A10002C4D0008E44E0008AC4E00080C50000875
:104A2000B84F0008644F00088C4F00086850000819
:104A300044500008DC4F0008344E0008644C000865
:104A40008C4D00085C4E0008BC4C0008C4500008A7
:104A5000404F0008D84D0008684D0008884E0008F7
:104A60001C4F0008084C0008EC4B0008636D5F62A7
:104A700061636B74726163655F6173736572740007
:104A8000636D5F6261636B74726163655F666175BC
:104A90006C740000CC4A0008D04A0008D44A0008D0
:104AA000D84A0008E44A0008E04A0008DC4A000846
:104AB000784B000800000000000000000102030421
:104AC000060708090000000001020304523020001C
:104AD0005231200052322000523320005043200037
:104AE0004C522000523132003D3D3D3D3D3D3D3D6B
:104AF0003D3D3D20CFDFB3CCB6D1D5BBD0C5CFA295
:104B0000203D3D3D3D3D3D3D3D3D3D3D00000000E6
:104B10003D3D3D3D3D3D3D3D3D3D3D3D20D6F7B616
:104B2000D1D5BBD0C5CFA2203D3D3D3D3D3D3D3D16
:104B30003D3D3D3D000000003D3D3D3D3D3D3D3D99
:104B40003D3D3D3D3D3D3D3D3D3D3D3D3D3D3D3D95
:104B50003D20BCC4B4E6C6F7D0C5CFA2203D3D3D44
:104B60003D3D3D3D3D3D3D3D3D3D3D3D3D3D3D3D75
:104B70003D3D3D3D3D3D000050535200B9CCBCFE93
:104B8000C3FBB3C6A3BA2573A3ACD3B2BCFEB0E6D5
:104B9000B1BEBAC5A3BA2573A3ACC8EDBCFEB0E6DE
:104BA000B1BEBAC5A3BA257300000000B2E9BFB414
:104BB000B8FCB6E0BAAFCAFDB5F7D3C3D5BBD0C514
:104BC000CFA2A3ACC7EBD4CBD0D0A3BA616464723C
:104BD000326C696E65202D652025732573202D614B
:104BE000202D6620252E2A7300000000B7A2C9FAE6
:104BF000D7DCCFDFB4EDCEF3B5C4B5D8D6B7A3BA02
:104C00002530387800000000B7A2C9FAB4E6B4A293
:104C1000C6F7B9DCC0EDB4EDCEF3B5C4B5D8D6B7A0
:104C2000A3BA253038780000D4DAD6D0B6CFBBF29C
:104C3000C2E3BBFABBB7BEB3CFC2B7A2C9FAB4EDE9
:104C4000CEF3D2ECB3A30000D4DACFDFB3CC282567
:104C50007329D6D0B7A2C9FAB4EDCEF3D2ECB3A380
:104C600000000000B7A2C9FAD3C3B7A8B4EDCEF3D1
:104C7000A3ACD4ADD2F2A3BACAD4CDBCC7D0BBBB0F
:104C8000B5BD2041524D20D7B4CCAC00B4EDCEF32D
:104C9000A3BACEDEB7A8BBF1C8A1D6F7D5BBD0C5A5
:104CA000CFA2A3ACC7EBBCECB2E9D6F7D5BBB5C479
:104CB000CFE0B9D8C5E4D6C300000000B7A2C9FA56
:104CC000D3C3B7A8B4EDCEF3A3ACD4ADD2F2A3BA9C
:104CD000C6F3CDBCD6B4D0D0B7C7B6D4C6EBB7C335
:104CE000CECA0000D4DAD6D0B6CFBBF2C2E3BBFA4C
:104CF000BBB7BEB3CFC2B7A2C9FAB6CFD1D40000FA
:104D0000D4DACFDFB3CC28257329D6D0B7A2C9FA1D
:104D1000B6CFD1D400000000BBF1C8A1BAAFCAFD24
:104D2000B5F7D3C3D5BBCAA7B0DC0000B7A2C9FA98
:104D3000B4E6B4A2C6F7B9DCC0EDB4EDCEF3A3ACD3
:104D4000D4ADD2F2A3BAC6F3CDBCB4D3B2BBD4CAED
:104D5000D0EDB7C3CECAB5C4C7F8D3F2B6C1A1A2CD
:104D6000D0B4CAFDBEDD0000B7A2C9FAB5F7CAD4F7
:104D7000B4EDCEF3A3ACD4ADD2F2A3BACAFDBEDD7E
:104D8000BCE0B2E2B5E3C6A5C5E40000B7A2C9FA2B
:104D9000D3C3B7A8B4EDCEF3A3ACD4ADD2F2A3BACB
:104DA000CEDED0A7B5C4D2ECB3A3B7B5BBD8C2EBA7
:104DB00000000000B7A2C9FAD3B2B4EDCEF3A3ACA1
:104DC000D4ADD2F2A3BAC8A1D6D0B6CFCFF2C1BF6C
:104DD000CAB1B3F6B4ED0000B7A2C9FAB5F7CAD4A8
:104DE000B4EDCEF3A3ACD4ADD2F2A3BAD6B4D0D046
:104DF00020424B505420D6B8C1EE0000B7A2C9FAE9
:104E0000B4E6B4A2C6F7B9DCC0EDB4EDCEF3A3AC02
:104E1000D4ADD2F2A3BAC6F3CDBCB4D3B2BBD4CA1C
:104E2000D0EDB7C3CECAB5C4C7F8D3F2C8A1D6B8BF
:104E3000C1EE0000B7A2C9FAD3C3B7A8B4EDCEF350
:104E4000A3ACD4ADD2F2A3BAC6F3CDBCD6B4D0D005
:104E5000CEB4B6A8D2E5D6B8C1EE0000B7A2C9FA62
:104E6000D3C3B7A8B4EDCEF3A3ACD4ADD2F2A3BAFA
:104E7000C6F3CDBCD6B4D0D0D0ADB4A6C0EDC6F785
:104E8000D6B8C1EE00000000B7A2C9FAB5F7CAD47F
:104E9000B4EDCEF3A3ACD4ADD2F2A3BAB7A2C9FAA3
:104EA000CFF2C1BFB2B6BBF100000000B7A2C9FA91
:104EB000B4E6B4A2C6F7B9DCC0EDB4EDCEF3A3AC52
:104EC000D4ADD2F2A3BAC8EBD5BBCAB1C6F3CDBC40
:104ED000B7C3CECAB2BBB1BBD4CAD0EDB5C4C7F854
:104EE000D3F20000B7A2C9FAB4E6B4A2C6F7B9DC9F
:104EF000C0EDB4EDCEF3A3ACD4ADD2F2A3BAB3F609
:104F0000D5BBCAB1C6F3CDBCB7C3CECAB2BBB1BB69
:104F1000D4CAD0EDB5C4C7F8D3F20000B7A2C9FA1D
:104F2000B5F7CAD4B4EDCEF3A3ACD4ADD2F2A3BAE4
:104F3000CDE2B2BFB5F7CAD4C7EBC7F3000000009B
:104F4000B7A2C9FAB5F7CAD4B4EDCEF3A3ACD4ADC9
:104F5000D2F2A3BA4E56494320CDA3BBFAC7EBC742
:104F6000F3000000B7A2C9FAD7DCCFDFB4EDCEF36F
:104F7000A3ACD4ADD2F2A3BABEABC8B7B5C4CAFD18
:104F8000BEDDD7DCCFDFB4EDCEF30000B7A2C9FAA7
:104F9000D7DCCFDFB4EDCEF3A3ACD4ADD2F2A3BA5D
:104FA000B2BBBEABC8B7B5C4CAFDBEDDD7DCCFDF70
:104FB000B4EDCEF300000000B7A2C9FAD7DCCFDF12
:104FC000B4EDCEF3A3ACD4ADD2F2A3BAD6B8C1EE51
:104FD000D7DCCFDFB4EDCEF300000000B7A2C9FAF2
:104FE000D7DCCFDFB4EDCEF3A3ACD4ADD2F2A3BA0D
:104FF000B6E8D0D4B1A3B4E6B8A1B5E3D7B4CCAC8D
:10500000CAB1B7A2C9FAB4EDCEF30000B7A2C9FA8B
:10501000B4E6B4A2C6F7B9DCC0EDB4EDCEF3A3ACF0
:10502000D4ADD2F2A3BAB6E8D0D4B1A3B4E6B8A155
:10503000B5E3D7B4CCACCAB1B7A2C9FAB4EDCEF3DC
:1050400000000000B7A2C9FAD7DCCFDFB4EDCEF381
:10505000A3ACD4ADD2F2A3BAC8EBD5BBCAB1B7A248
:10506000C9FAB4EDCEF30000B7A2C9FAD7DCCFDF9E
:10507000B4EDCEF3A3ACD4ADD2F2A3BAB3F6D5BBA4
:10508000CAB1B7A2C9FAB4EDCEF30000B4EDCEF3C5
:10509000A3BACFDFB3CCD5BB282530387829B7A247
:1050A000C9FAD2E7B3F60000B4EDCEF3A3BAD6F74F
:1050B000D5BB282530387829B7A2C9FAD2E7B3F68C
:1050C00000000000B7A2C9FAD3C3B7A8B4EDCEF36D
:1050D000A3ACD4ADD2F2A3BAC6F3CDBCD6B4D0D073
:1050E000B3FD203020B2D9D7F70000000C510008E2
:1050F00000000020A8000000F4180008B4510008C7
:10510000A8000020C058000004190008000000009A
:10511000000000000000000000000000100000007F
:10512000010000000000000000000000000000007E
:10513000000000000000000000000000000000006F
:10514000000000000000000000000000000000005F
:10515000000000000000000000000000000000004F
:10516000000000000000000000000000000000003F
:1051700000000000AAAAAAAA000000000000000087
:10518000000000000000000000000000000000001F
:10519000000000000000000000000000000000000F
:1051A0000000000000000000000000000024F400E7
:0451B00000000000FB
:0400000508000131BD
:00000001FF
